:020000040800F2
:10000000B015012041020008012B0008CD1F000897
:10001000FD2A0008C9060008FD2F000800000000A6
:10002000000000000000000000000000E52E0008B5
:10003000B907000800000000312B0008192F000844
:100040005B0200085B0200085B0200085B0200081C
:100050005B0200085B0200085B0200085B0200080C
:100060005B0200085B0200085B0200085B020008FC
:100070005B0200085B0200085B020008ED06000856
:100080005B0200085B0200085B0200080000000041
:100090000000000000000000000000005B020008FB
:1000A0005B0200085B0200085B0200085B020008BC
:1000B0005B0200085B0200085B0200085B020008AC
:1000C0005B0200085B0200085B0200085B0200089C
:1000D000492B00085B0200085B02000800000000DA
:1000E0005B0200085B0200085B02000800000000E1
:1000F0000000000000000000000000005B0200089B
:10010000000000005B0200085B0200085B020008C0
:1001100000000000000000000000000000000000DF
:100120005B0200085B0200085B0200085B0200083B
:100130005B0200080000000000000000000000005A
:100140000000000000000000000000005B0200084A
:100150005B0200085B0200085B0200085B0200080B
:100160005B0200085B0200080000000000000000C5
:10017000000000000000000000000000000000007F
:10018000000000005B02000800000000000000000A
:100190005B0200085B02000800F002F800F041F882
:1001A0000AA090E8000C82448344AAF10107DA45D2
:1001B00001D100F036F8AFF2090EBAE80F0013F0E3
:1001C000010F18BFFB1A43F001031847A48D030069
:1001D000C48D0300103A24BF78C878C1FAD85207FA
:1001E00024BF30C830C144BF04680C6070470000B1
:1001F0000023002400250026103A28BF78C1FBD830
:10020000520728BF30C148BF0B607047642900F017
:10021000AF80002070471FB52DF0C4FB1FBD10B587
:1002200010BD00F01EFA1146FFF7F5FF27F06EFE35
:1002300000F03CFA03B4FFF7F2FF03BC00F00AFA47
:100240000948804709480047FEE7FEE7FEE7FEE76A
:10025000FEE7FEE7FEE7FEE7FEE7FEE704480549A6
:10026000054A064B70470000C52F00089901000899
:10027000B0E50020B0150120B0F50020B0F5002059
:1002800053EA020C00F069802DE9F04B4FF00006B4
:10029000002B1FBFB3FA83F503FA05F424FA05F621
:1002A0005E4012BF1643B2FA82F502FA05F4C5F1B8
:1002B00020051EBF22FA05FC44EA0C04203556EA4C
:1002C000044C4FEA144418BF641C4FF000084FF070
:1002D0000009904271EB030C39D3002919BFB1FA20
:1002E00081F701FA07F6B0FA80F700FA07F6C7F1CE
:1002F00020071EBF20FA07FC46EA0C062037B6FB93
:10030000F4FCA7EB0507103F07F01F0BCBF120060D
:100310002CFA06F60CFA0BFB44BFB3460026202F3E
:10032000A4BF5E464FF0000B5BEA060C08BF4FF01F
:10033000010B19EB0B0948EB0608ABFB027C06FB33
:1003400002CC0BFB03CCC01B71EB0C01C1E70B46CD
:10035000024641464846BDE8F08B13B5084318BF36
:100360004FF0FF300146AFF30080BDE81C407047FE
:100370002DE9F0410646002410687529314616A57E
:1003800010D0AFF30080002802DA404213A507E046
:1003900031688A0701D512A502E0490704D511A5E5
:1003A000012401E0AFF3008000210A2206F12407B6
:1003B00009E0B0FBF2FCB0FBF2F302FB1C003030B2
:1003C00078541846491C0028F3D123462A46304663
:1003D000BDE8F04100F0E5B8000000002D0000008D
:1003E0002B0000002000000040EA0103024630B567
:1003F0009B0710D14FF0013400E008C208C91D1B53
:100400009D4315EAC41FF8D013F0FF0102F8011B49
:100410000DD01B0AF8E711F8013B002B02F8013B55
:1004200005D011F8013B002B02F8013BF3D130BDA0
:1004300010B5431C02E010F8011B71B18107FAD11D
:100440004FF0013202C88C1A8C4314EAC211F9D061
:10045000C01A0A0603D0C01E10BDC01A10BD0A047F
:1004600001D0801E10BD0902FCD0401E10BD02F05C
:10047000FF0343EA032242EA024200F00AB802F014
:10048000FF0343EA032242EA024200F024B84FF09D
:1004900000020429C0F0128010F0030C00F01B8051
:1004A000CCF1040CBCF1020F18BF00F8012BA8BF5F
:1004B00020F8022BA1EB0C0100F00DB85FEAC17C23
:1004C00024BF00F8012B00F8012B48BF00F8012BD6
:1004D00070474FF0000200B5134694469646203907
:1004E00022BFA0E80C50A0E80C50B1F12001BFF4ED
:1004F000F7AF090728BFA0E80C5048BF0CC05DF853
:1005000004EB890028BF40F8042B08BF704748BFA0
:1005100020F8022B11F0804F18BF00F8012B704714
:1005200030B44FF0013C50F8042B51F8043BCCFAA6
:1005300052F4D51A20D1FCB950F8042B51F8043BE1
:10054000CCFA52F4D51A17D1B4B950F8042B51F89B
:10055000043BCCFA52F4D51A0ED16CB950F8042BE6
:1005600051F8043BCCFA52F4D51A05D1002CDAD05C
:1005700030BC4FF00000704729BAB1FA81F111F098
:100580001801D1F120008440F2D1CA40CB4012F0D2
:10059000FF0213F0FF0330BCD01A7047704770475A
:1005A00070472DE9F0470D4699469246044600F102
:1005B00024080168880604D5E06921F01001216053
:1005C00000E00120A84201DD471B00E00027A169EF
:1005D0007A1902EB0900081AA0612078C00602D43B
:1005E0002046AFF30080002608E0D4E901211AF884
:1005F00006009047206A401C761C20624E45F4DBC2
:100600002078C0060AD52046AFF3008006E0D4E982
:10061000012130209047206A401C2062381EA7F13B
:100620000107F4DC07E0D4E9012118F80500904740
:10063000206A401C2062281EA5F10105F3DC20463B
:10064000AFF300802078000602D50220BDE8F087D5
:100650000120FBE701491820ABBEFEE7260002009F
:100660007047754600F02CF8AE46050069465346C3
:1006700020F00700854618B020B5FFF7EFFDBDE874
:1006800020404FF000064FF000074FF000084FF0F9
:10069000000BAC46ACE8C009ACE8C009ACE8C00946
:1006A000ACE8C00921F007018D46704710B504463B
:1006B000AFF300802046BDE81040FFF7BBBD00004F
:1006C00000487047B0000020FEE700000129B8BFD5
:1006D00070470238023100BF10F8022F0239437808
:1006E000022942700370F7DC7047000080B540F2C9
:1006F000A440C2F2000000F0B9F880BDD0F800C0FC
:100700006FF00F024AF6AB2352FA8CF2CAF6AA2314
:100710000146A2FB0330000905A31B5C40F2FF3039
:100720002CEA00005F2A88BF0430C1E91603704735
:1007300000061016000610168269816AB2F5005F85
:1007400006D06AB9022912D0012914D0D1B90EE01D
:10075000032917D8DFE801F0020B020F01207047D0
:1007600003293CBF012070471CBF00207047C06AAE
:10077000C0F300607047C06AA0F1C070B0FA80F0AA
:10078000400970470020704780B5D0F800C0D0F80D
:1007900008E0DCF80000BEF1400F20F48020CCF827
:1007A00000000846CCF8043004BF10460A46CCF8D6
:1007B0000800CCF80C2080BD70470000EFF31080DB
:1007C00072B600BFFEE70000F0B583B006464FF6F4
:1007D000FF70009040F204501D4614468DF80B1037
:1007E000C2F200000DF10B0231460123012700F097
:1007F00059FC30BB40F20457C2F20007384600F003
:100800007DFA2028FAD140F204504FF6FF77C2F269
:10081000000031462A462346009700F03FFB08B10E
:1008200001270EE064B1013D002600BF15F8010F5D
:1008300002F080F90136A6422870F7D3002700E0C5
:100840000027384603B0F0BD90F83510022909D1D1
:10085000052180F835100068016821F00101016070
:10086000002070478021416501207047F0B581B0BC
:1008700004460020009040F20400C2F2000002682A
:10088000D4E9166048F2B51337680821C1F64E3333
:1008900081403942A2FB03250CD0226813685B0714
:1008A00008D5136823F004031360B160616D41F053
:1008B0000101616501218140394208D022685269F5
:1008C000120604D5B160616D41F002016165042139
:1008D0008140394208D022681268920704D5B1607D
:1008E000616D41F00401616510218140394215D0EC
:1008F00020680268120711D5B160026801685203CE
:1009000006D4C90506D4016821F00801016001E0A0
:10091000080342D4216C09B120468847E16D2020AC
:1009200000FA01F23A4244D020680368DB0640D561
:10093000B26094F835300268052B1ED122F0160201
:100940000260426922F080024261226C0AB9A26C04
:100950001AB1026822F0080202603F208840B060AD
:10096000012084F83500216D0020002984F834002E
:1009700040D02046884701B0F0BD0168520310D432
:10098000C90512D4016821F010010160012084F82A
:100990003500002084F8340007E0A16C0029BBD1A9
:1009A000BCE7080301D4616C00E0E16B09B12046AB
:1009B0008847606DF0B1606DC00717D0052084F8DE
:1009C00035002068A90A026822F00102026000BF17
:1009D000009A01328A42009202D80268D207F7D107
:1009E000012084F83500002084F83400E16C09B15E
:1009F0002046884701B0F0BD2DE9F041044600F0E3
:100A000077F9C4B10546022084F83500002021683A
:100A100084F83400086820F0010008602668306817
:100A2000C0070BD000F064F9401B0528F6D903215C
:100A30002022032042E00120BDE8F081306848F226
:100A40003F01CFF21001251D00EA010C2ECDD4E9A3
:100A5000050E41EA0C01114319432943D4E90778F3
:100A6000084340EA0E01606A3943042841EA08015C
:100A700003D1D4E90B231143194331607169042870
:100A800021F0070141EA00050CD1D4E90A1045EA3A
:100A9000010538B12046FFF74FFE18B10121402271
:100AA00001200BE020467561FFF728FEE16D3F2233
:100AB00002FA01F18160002201210020626584F8C0
:100AC0003510BDE8F0810000B0B5044690F8340060
:100AD000012828D0012084F83400A56D94F8350051
:100AE00001281DD1022084F83500002060652046D1
:100AF000FFF74AFEE26D3F23206803FA02F2216C01
:100B0000AA60026842F01602026019B1016841F061
:100B100008010160016841F0010101600020B0BDE1
:100B2000002084F834000220B0BD0000B0B50446B7
:100B300000F0DEF8054640F2A400C2F200000078A2
:100B4000611C18BF044400BF00F0D2F8401BA04253
:100B5000FAD3B0BD2DE9F04F83B000F13E4202F16F
:100B6000FF724FEAB22241F200070192C4F202077B
:100B700007224FF0010E00254FF0000A4FF0000849
:100B8000B84208BF042200920AE000BF08F1010841
:100B90000AF1040AB8F1100F05F1020500F0A48073
:100BA0000C680EFA08FB14EA0B09EFD04C6804F04D
:100BB000030CACF1010EBEF1010F11D803228768BE
:100BC00002FA05F6CA68B743AA403A43826042680F
:100BD000C4F3001722EA0B0207FA08F73A4342600F
:100BE000BCF1030F1CD0C26803238E6803FA05F71B
:100BF000BA4306FA05F73A43BCF1020FC2600FD1BF
:100C00006FF0030202EA580202440AF01C060F23A6
:100C1000176A03FA06F40B69A743B3403B43136218
:100C2000026803234F68AB409A4307F00303AB40CD
:100C30001A4317F4403F4FF0010E0260A6D0002285
:100C400043F644030292C4F202031A6843F60044D6
:100C500042F480421A601A68C4F2010402F480422D
:100C60000292029A28F003024FF6084B2244CFF674
:100C7000FF7B52F80B300AF00C070F26BE4023EA28
:100C8000060C019B009E042B38BF1E4606FA07F790
:100C900047EA0C0342F80B30A2684B6842EA0907A6
:100CA00043F60C4CDE0258BF22EA0907A760C4F2E3
:100CB000010CDCF800209E0242EA090758BF22EA34
:100CC0000907CCF8007062689E0342EA090758BF22
:100CD00022EA090767602268DB0342EA090358BF7A
:100CE00022EA0903236051E703B0BDE8F08F00005A
:100CF0004EF2AC50C2F200000068704790F83D0020
:100D000070470000F0B581B0B0B3044690F83D00E4
:100D100028B9002084F83C00204600F05FFA242027
:100D200084F83D002068016821F00101016001683C
:100D300041F400410160016821F40041016000F0CC
:100D4000C3FB48F28041C0F21E0140F60012656804
:100D500088424FF00001C0F23D0248F2A16C4FF012
:100D6000000338BF01219042C0F2010C38BF0123BB
:100D7000654538BF0B4613B1012001B0F0BD4DF6FB
:100D80008361C4F21B31A0FB011221684FEA924E2D
:100D90004B684FF4967623F03F0343EA92434B604F
:100DA00044F6D3530F6A0EFB06F6C1F26203A6FBAC
:100DB000033627F03F03B709654538BF970C7A1C07
:100DC0001A430A62CA6948F2A0674CF6FF73C0F280
:100DD0000107BD4222EA030C0AD801386A00B0FBC1
:100DE000F2F001306FF31F30042898BF04202BE08D
:100DF000A368A0F1010E9BB119206843BEFBF0F07F
:100E00000422013062F31F30000512D09BB119207B
:100E10006843BEFBF0F00422013062F31F3011E0A2
:100E200005EB4500BEFBF0F001306FF31F3000050D
:100E3000ECD1012008E005EB4500BEFBF0F00130ED
:100E40006FF31F3040F4004040EA0C00C8610868AE
:100E5000D4E9072320F0C0001043184308608868D5
:100E600048F2FF3204F10C0790438CCF1843104333
:100E7000A6698860C86820F0FF0038433043C86026
:100E8000086840F00100086000202021206484F8F8
:100E90003D10206384F83E0001B0F0BD2DE9F04321
:100EA00083B01E4615460F460446FFF721FF94F80F
:100EB0003D1020290FD102218146C0F210012046A9
:100EC00001221923CDF8009001F0A2F918B994F885
:100ED0003C00012803D1022003B0BDE8F0830121CA
:100EE000206884F83C100168DDF82880C90703D128
:100EF000016841F0010101600168424621F400618E
:100F00000160222084F83D00102084F83E0000207B
:100F1000206465626685608D394620850020CFF6A5
:100F2000FF70E06220464B4601F06AF818B10120DC
:100F300003B0BDE8F083208D022806D001280DD033
:100F4000E8B90020029020680FE02068016821F4D1
:100F500080610160016841F4006114E0206801686B
:100F600021F480610160002102914169029181694F
:100F700002910299016841F4007101600BE0206860
:100F8000016841F480610160002102914169029190
:100F9000806902900298208D002877D00427C0F243
:100FA000010716E0204641464A4601F0B1F9002803
:100FB000BDD12068616A00690870606A218D0130C6
:100FC0006062481E2085608D01386085208D002874
:100FD0005CD003283ED802281CD00128E2D020464D
:100FE000394600224346CDF8009001F011F900285F
:100FF0009DD12068616A026822F480620260006903
:101000000870606A218D01306062481E2085608D05
:10101000013860852046394600224346CDF80090CD
:1010200001F0F6F800287FF482AF2068616A026858
:1010300042F40072026000690870606A2268411C14
:101040006162218D01392185618D013961851169C7
:101050004170B2E7204641464A4601F059F900285E
:101060007FF465AF2068616A00690870606A228D4C
:101070000130013A606222852168628D013A628501
:101080004A695207A2D50969017096E7202084F8C1
:101090003D00002084F83E0084F83C0003B0BDE829
:1010A000F08300002DE9F04782B01E4617468946BE
:1010B0000446FFF71DFE94F83D1020290ED10221B1
:1010C0000546C0F21001204601221923009501F0C7
:1010D0009FF818B994F83C00012803D1022002B00F
:1010E000BDE8F0870121206884F83C100168DDF834
:1010F0002880C90703D1016841F00101016001683E
:101100004FF0000A21F400610160212084F83D00C5
:10111000102084F83E00C4F840A067626685608DA8
:10112000494620850020CFF6FF70E0622046424607
:101130002B4600F0E5FF18B1012002B0BDE8F087B2
:10114000CDF804A02068416901918069019001985F
:1011500006E000BF204641462A4601F029F820BBA0
:10116000208D58B3204641462A4601F001F9E0B9E6
:10117000606A2168024612F8013B0B616262628D6F
:10118000013A6285228D571E27854B693F0418BF9F
:1011900013F00403DED0437802300B616062608D8F
:1011A00001386085901E2085D4E7206C0428C3D1C7
:1011B0002068016841F400710160BDE720680168A2
:1011C00041F400710160202084F83D00002084F883
:1011D0003E0084F83C0002B0BDE8F087B0B586B0B0
:1011E00045F200410068C4F20001002488420594E1
:1011F000CDE903440294019401D006B0B0BD43F69A
:1012000030050094C4F20205286840F0020028600E
:10121000286800F0020000900098C0200190122081
:10122000CDE90204032004900420059001F5D83094
:1012300001A9FFF78FFC0094286940F40010286191
:10124000286900F400100090009806B0B0BD0000BE
:1012500040F2A4004EF2AC51C2F20000C2F2000112
:1012600000780A68104408607047000080B543F6B3
:101270000040C4F20200016841F40071016001689D
:1012800041F480610160016841F4807101600320D4
:1012900000F060F80F2000F005F800F02BF80020B7
:1012A00080BD0000B0B540F2A402C2F2000240F2DC
:1012B00004011278C2F200014FF47A730968B3FB9B
:1012C000F2F20446B1FBF2F1084600F07BFE0F2C6F
:1012D0004FF001050CD858B94FF0FF3021460022DD
:1012E000002500F027F840F2A800C2F200000460D8
:1012F0002846B0BD82B0002043F640010190C4F200
:1013000002014A6842F480424A604A6802F480421C
:101310000192019A0090086840F0805008600868C7
:1013200000F080500090009802B0704780B501F046
:101330007BFE80BD70B514460D46064601F084FE66
:101340002946224601F0DEFB0146304601F084FECC
:1013500070BD000080B501F091FE80BD2DE9F04127
:10136000002800F08B8043F60808C4F20208044607
:10137000D8F8F8030D4600F00700884207D288F835
:10138000F853D8F8F80300F00700A84276D1206897
:10139000810717D5410705D5D8F8001041F4E05171
:1013A000C8F80010010705D5D8F8001041F46041D5
:1013B000C8F80010D8F80010A26821F0F00111431D
:1013C000C8F80010C0073FD1D8F8F80300F00700B4
:1013D000A84207D988F8F853D8F8F80300F00700B6
:1013E000A8424BD12068410707D5D8F80010E26821
:1013F00021F4E0511143C8F80010000708D5D8F8CF
:101400000000216920F4604040EAC100C8F80000F3
:1014100000F06CF8D8F800104DF6BE12C1F30311BD
:10142000C0F60202515C40F2040220FA01F140F2DF
:10143000A800C2F200000068C2F200021160FFF7CB
:1014400031FF0020BDE8F0816068811E022907D2CB
:1014500058F8081C89015CBF0120BDE8F08110E04C
:10146000012807D158F8081C89035CBF0120BDE89A
:10147000F08106E058F8081C890702D40120BDE875
:10148000F081D8F8001021F003010843C8F80000EB
:10149000FFF72EFC064641F2883700BFD8F800005F
:1014A000616800F00C00B0EB810F8DD0FFF720FCDD
:1014B000801BB842F2D90320BDE8F08140F204005D
:1014C000C2F200000068704780B5FFF7F7FF43F6EF
:1014D0000801C4F2020109684DF6CE12C1F382215F
:1014E000C0F60202515CC84080BD000010B543F652
:1014F0000404C4F20204606800F00C0008280AD05A
:10150000042819BF42F20040C0F2F40047F6400040
:10151000C0F27D1010BD206821682368490247F69B
:101520004001C0F27D1100F03F02C3F388105CBFA0
:1015300042F20041C0F2F401A1FB00010023FEF7DA
:101540009FFE21680222C1F3014102EB4101B0FB81
:10155000F1F010BD2DE9F04182B0002800F0A2802A
:101560000446007843F60006C007C4F2020643D0E2
:10157000B06800F00C00042805D1306880033BD52A
:101580006068C8BB8EE0B06800F00C00082802D18B
:1015900070684002F1D46568B5F5A02F0AD0B5F5A2
:1015A000803F0BD0306820F480303060306820F409
:1015B000802006E0306840F480203060306840F4DD
:1015C00080303060FFF794FB002D054611D000BF3E
:1015D0003068800310D4FFF78BFB401B6428F7D9D9
:1015E00022E100BFFFF784FB401B64284FF003009B
:1015F00055D830688003F5D4207880071AD5B068B4
:1016000010F00C0F09D0B06800F00C00082840F072
:101610008A807068400200F186803068800702D5B9
:10162000E06801283ED13068216920F0F80040EAE6
:10163000C10030602078000738D4207840074CD4AF
:10164000A5695DB3B06800F00C00082840F09E80EA
:10165000012D27D07068E16900F480028A4221D10F
:10166000216A00F03F028A421CD147F6C071626ACB
:101670000140B1EB821F15D1A26A0023CFF6FF73A0
:1016800003EBC23200F440316FF30F02914209D1F3
:10169000E16A00F07060B0EB016F03D1002002B08E
:1016A000BDE8F081012002B0BDE8F081606900284A
:1016B00040F20000C4F2472057D00121C0F8801E3C
:1016C000FFF716FB054600BF706F8007B5D4FFF724
:1016D0000FFB401B0228F7D9A6E0306C10F08058B1
:1016E0000AD100200190306C40F080503064306CA2
:1016F00000F080500190019847F20007C4F2000703
:101700003868C00524D4386840F480703860FFF72A
:10171000EFFA05463868C0051AD4FFF7E9FA401B0E
:101720000228F7D980E0E068002851D00020C4F2F8
:10173000472001210160FFF7DBFA0546306880078A
:101740003FF571AFFFF7D4FA401B0228F6D96BE0E2
:10175000A568052D50D0012D52D0306F20F001002A
:101760003067306F20F004004DE00021C0F8801E8B
:10177000FFF7BEFA054600BF706F80077FF55DAFCB
:10178000FFF7B6FA401B0228F6D94DE00027C4F255
:10179000472700203866FFF7ABFA022D05460BD12C
:1017A0003068800158D5FFF7A3FA401B02284FF09C
:1017B0000300F5D973E700BF306880017FF56EAF95
:1017C000FFF796FA401B02284FF00300F4D966E7B2
:1017D0000020C4F2472000210160FFF789FA054686
:1017E000306880077FF526AFFFF782FA401B02289A
:1017F0004FF00300F4D952E7306F40F00400306737
:10180000306F40F001003067FFF772FA002D054697
:1018100041F2883714D000BF306F800713D4FFF730
:1018200067FA401BB842F7D9032002B0BDE8F08147
:10183000FFF75EFA401BB8424FF003003FF62FAFB0
:10184000306F8007F4D4B8F1000F7FF4F9AE306C3C
:1018500020F080503064F3E604F11C052FCD0843DE
:101860000021CFF6FF7140EA821001EBC3316FF324
:101870000F0140EA05600843706001203866FFF7F9
:1018800037FA0446306880013FF508AFFFF730FAB9
:10189000001B02284FF00300F4D900E77047000056
:1018A000B0B582B004460068416882684B0602F019
:1018B000400305D512F0010502D00BB9216C05E0FB
:1018C0000D0607D512F0020504D0616C204688474A
:1018D00002B0B0BD8D0664D512F4B07561D0BBB155
:1018E00094F85130032B08D100210191C168019176
:1018F00080680190019802B0B0BD636D43F00403AD
:10190000636500230193C368019383680193019B7E
:1019100012F0200302F480720CD0636D43F00103D7
:1019200063650023019383680193036823F04003F8
:101930000360019B42B1626D42F0080262650022C1
:10194000019282680192019A626D52B342688907DE
:1019500022F0E00242604FF0010284F851201DD0D5
:10196000416842F6593521F003014160E06CC0F650
:10197000000538B10565FEF767FF18B1606D40F0EE
:1019800040006065A06C60B10565FEF75DFF40B189
:10199000606D40F04000606502B0B0BD2046FFF7CA
:1019A0007DFF02B0B0BD000070B538B10446406A9A
:1019B00030B10020206104F1140007E0012070BD67
:1019C0006068B0F5827F03D004F11C000021016043
:1019D0000026A66294F8510020B9204684F8506091
:1019E00000F03CF8022084F8510094E80F0001F464
:1019F0008271056802F4044225F040050560114437
:101A000003F400622369114403F002026369114484
:101A100003F00102A369E569114403F40072114463
:101A200005F03802256A114405F08002A56A1143C9
:101A300005F4005211430160626A042101EA134176
:101A400002F0100211444160C16921F40061C161DA
:101A50000120666584F85100304670BD70B586B0CF
:101A60000446006843F60001C4F2000100268842E3
:101A7000CDE90466CDE9026601962FD043F200015C
:101A8000C4F20101884279D1002043F63001009070
:101A9000C4F202014A6942F480524A614A6902F47E
:101AA00080520092009A00900A6842F001020A6097
:101AB000096801F0010100910099E02101910221E2
:101AC000CDE9021003200490052005900020C4F207
:101AD000020001A9FFF73EF806B070BD43F63005DD
:101AE0000096C4F20205286901A940F480402861EB
:101AF000286900F48040009000980096286840F023
:101B000002002860286800F00200009000984FF45E
:101B1000044001900220CDE9020603200490052034
:101B200005900020C4F2020000F58060FFF712F873
:101B300005F5215040F2A445C2F20005C5E90006B2
:101B40004FF4003040214FF48062C5E90806284672
:101B5000C5E90216C5E90426C5E90666FEF74CFF8D
:101B6000002818BFFEF72AFE242000210022A564C9
:101B7000AC63FFF7DFFB2420FFF7D8FB06B070BD96
:101B80002DE9F04381B0044690F85000012803D1BC
:101B9000022001B0BDE8F0834FF001091D46164652
:101BA0000F4684F85090FFF7A3F894F851100129DC
:101BB0005DD18046002F4FF0010018BF002E00F0CD
:101BC0009580032084F85100002060652763A68675
:101BD000E686A063A087E087A168C4E91000B1F59C
:101BE000004F08D12068016821F0400101600168C0
:101BF00041F48041016020680168490603D401680E
:101C000041F0400101606168731EE268B1FA81F140
:101C1000B3FA83F349095B09B2F5006F41EA0301A6
:101C200027D139B1216B0988C160B81C2063E08ECF
:101C30000138E086E08E002841D06E1C0AE000BF2B
:101C4000216B31F8022BC2602163E08E0138E086FF
:101C5000E08EA0B3206881688907F1D4FFF748F8C7
:101C6000002EF5D0A0EB0800A842F1D325E0022019
:101C70003CE039B139780173206B01302063E08E8C
:101C80000138E086E08ED0B16E1C0AE0216B097845
:101C90000173206B01302063E08E0138E086E08E16
:101CA00068B1206881688907F0D4FFF721F8002E19
:101CB000F5D0A0EB0800A842F1D3032016E020469F
:101CC0002946424600F0A0FF00281CBF2020606586
:101CD000A06838B9002000902068C1680091806831
:101CE00000900098606D002818BF0120002184F842
:101CF000519084F8501001B0BDE8F0832DE9F04315
:101D000081B0044690F85000012803D1022001B0B0
:101D1000BDE8F08301201E4615460F4684F85000AA
:101D2000FEF7E6FF94F85110814601290CD0606857
:101D3000B0F5827F76D104294FF0020040F0C680D2
:101D4000A168002940F0C280002F4FF0010018BFA9
:101D5000002D00F0BB80002E00F0B88094F85100F8
:101D6000002104281CBF052084F851006165A5638B
:101D7000E687A6872763E6862068A68621646164D5
:101D80000168490603D4016841F0400101606168BF
:101D9000731EE268B1FA81F1B3FA83F3DDF82080B3
:101DA00049095B09B2F5006F41EA03013CD139B141
:101DB000216B0988C160B81C2063E08E0138E08681
:101DC000012608F1010500BFE08E10B9E08F002860
:101DD00066D02068816889070CD5E18E012E09D173
:101DE00041B1216B002631F8022BC2602163E18EE4
:101DF0000139E1868168C9070AD0E18F41B1C06825
:101E0000A16B012621F8020BA163E08F0138E08766
:101E1000FEF76EFF002DD7D0A0EB09004045D3D3CD
:101E2000032053E0022051E039B139780173206B6F
:101E300001302063E08E0138E086012608F10105BB
:101E4000E08E08B9E08F58B32068816889070DD506
:101E5000E18E012E0AD149B1216B00260978017368
:101E6000206B01302063E08E0138E08620688168B5
:101E7000C9070BD0E18F49B1C068A16B012608707A
:101E8000A06B0130A063E08F0138E087FEF730FFE0
:101E9000002DD5D0A0EB09004045D1D3032015E09B
:101EA000204641464A4600F0AFFE18B1202060654A
:101EB00001200BE0A06800284FF0000006D1009040
:101EC0002168CA680092896800910099012184F80C
:101ED0005110002184F8501001B0BDE8F0830000DB
:101EE00010B5044690F85000012804BF022010BD30
:101EF000012084F8500094F85100012840D10029B5
:101F00004FF0010018BF002A3BD00320002384F8C3
:101F1000510063652163A286E286A363C4E910339E
:101F2000A387E387A068B0F5004F08D12068026856
:101F300022F040020260026842F480420260A06C1B
:101F400042F68D3C42F69932C0F6000CC0F6000213
:101F5000C0E90F2C42F66932C0F60002D4F800E066
:101F6000C0E91323E38E0EF10C02FEF7ADFD60B164
:101F7000606D40F010006065012084F8510000E0C1
:101F80000220002184F8501010BD20680168490625
:101F900003D4016841F040010160416841F0200133
:101FA0004160416841F0020141600020E9E7000022
:101FB00080B540F23830C2F2000014F0F5FE80BD6A
:101FC0007047000080B500F08FFF80BDFEE7000085
:101FD0000268516949054FF000010FD56FF4806325
:101FE00053612022016380F83D2080F83E10026C8E
:101FF00042F00402026480F83C1001210846704758
:102000002DE9F04383B0044600681D461646E26A97
:1020100003680F4643F4806112F5803F016018BFEA
:10202000012A30D1016841F48071016020464FF0EF
:10203000011100223346009500F0EAF850B1206803
:102040000068C00544BF4FF400702064032003B053
:10205000BDE8F083206940F20208B0F5804FC0F27D
:10206000010816D147F00100C0B22168324608616C
:10207000204641462B4600F005F9002818BF0120F4
:1020800003B0BDE8F083082ACCD0216B1129C9D058
:10209000CCE7062000EAD719206809F1F0010161B8
:1020A00008F10601204632462B4600F0EBF848B90D
:1020B0002068F9B201612046414632462B4600F0C5
:1020C000E1F818B1012003B0BDE8F08300200290D0
:1020D0002068002241693346029181690291029988
:1020E000016841F48071016020464FF001110095B4
:1020F00000F08EF80028A2D149F0F100B5E7000009
:102100002DE9F04182B00446C06A1D46164610F51E
:10211000803F0F4618BF012823D12068016841F491
:102120008071016020464FF0011100223346009576
:1021300000F06EF850B120680068C00544BF4FF44D
:1021400000702064032002B0BDE8F081206940F2F5
:102150000208B0F5804FC0F2010808D107F0FE0078
:1021600018E00828D9D0206B1228D6D0DAE706204C
:1021700000EAD7102168F030086108F10601204616
:1021800032462B4600F07EF818B1012002B0BDE8BF
:10219000F081F8B2216832460861204641462B465C
:1021A00000F070F8002818BF012002B0BDE8F081EF
:1021B000F0B581B0044600684069400724D4154654
:1021C0000E464F1C04E000BF2068406940071BD446
:1021D0002046FFF7FDFEA0B9002FF5D0FEF788FDE1
:1021E00016B1401BB042EFD900202021206384F8B3
:1021F0003D1084F83E00216C41F02001216484F8F8
:102200003C00012001B0F0BD002001B0F0BD000095
:102210002DE9F047DDF820801D469146824601F405
:102220007F078EB25C1C00BFDAF80000B7F5803F74
:1022300014BF1830143000683040801BB0FA80F0B2
:10224000400948451BD1002CEED0FEF751FD1DB1D1
:10225000A0EB0800A842E7D900202021CAF83000EE
:102260008AF83D108AF83E00DAF8401041F020016B
:10227000CAF840108AF83C000120BDE8F087002031
:10228000BDE8F0872DE9F0410446006898464369AF
:102290008FB203EA0701B94202D10020BDE8F08104
:1022A0004169490512D41646551C00BF35B1FEF7E9
:1022B0001FFD16B3A0EB0800B0421ED8206841698C
:1022C0003940B942E9D041694905EFD5016841F487
:1022D000007101606FF48061416100202021206362
:1022E00084F83D1084F83E00216C41F00401216423
:1022F00084F83C000120BDE8F0810020202120630B
:1023000084F83D1084F83E00216C41F02001EEE796
:1023100070B515460E46044620684169490613D437
:102320004169C90612D4FEF7E3FC16B1401BB04266
:10233000F2D900202021206384F83D1084F83E006B
:10234000206C40F020000CE0002070BD6FF0100108
:10235000416100202021206384F83D1084F83E0074
:10236000206C2064002084F83C00012070BD000037
:10237000F0B581B0044600684069000624D41546D3
:102380000E464F1C04E000BF2068406900061BD4C5
:102390002046FFF71DFEA0B9002FF5D0FEF7A8FCE0
:1023A00016B1401BB042EFD900202021206384F8F1
:1023B0003D1084F83E00216C41F02001216484F836
:1023C0003C00012001B0F0BD002001B0F0BD0000D4
:1023D0002DE9F04F85B0CDE9020100F08DF940F212
:1023E000A00A4DF6D8174FF00008C2F2000A4FF0CD
:1023F000FF3BC0F6020704AE00244FF0000900BF07
:1024000010F00CFAD0B3DAF800004DF6D711C0F690
:10241000020101224FF0FF3308F10105FFF7B0FB85
:10242000DAF8000039460DF112020223CDF800B0AF
:10243000FFF764FCDAF800004DF6D611C0F6020191
:1024400001224FF0FF33FFF79BFBDAF8000039461B
:1024500032460223CDF800B0FFF750FCBDF8100063
:10246000BDF81210000400BA8144080400BA044404
:10247000B8F1090FA846C3D34FF00A0800F072F96B
:10248000B8F10A0F03D2002005B0BDE8F08F4CF67A
:10249000CD40CCF6CC40A9FB0012A4FB0001D00833
:1024A00040F2DC53984288BFD30847F6181045F233
:1024B0008062834228BF034603EB8300CFF6FC72A1
:1024C00002EB401040F22772C8F62E62A0FB020217
:1024D000C80843F698218C4238BF40F6CC4047F2FA
:1024E0009E51884228BF084649F60021CFF6F9716F
:1024F00001EBC0104CF255714008C1F28931A0FBCC
:102500000101029B900B188040F20030C2F20000E3
:102510000078039A890A0128118021D140F2E02134
:10252000C2F20001B3F90000B1F9001090FBF1F024
:1025300040F2EC21C2F200010988084440F2E22195
:102540001880C2F20001B2F90000B1F9001090FB4E
:10255000F1F040F2EE21C2F2000109880844108037
:10256000012005B0BDE8F08FB0B5484345002020FC
:10257000144600F0B9F82C2000F042FD2046294610
:10258000FEF7A4F8082000F0E7F840F22C00C2F2B1
:1025900000000068AAB22146FFF7A2FCB0BD00000F
:1025A000F0B581B00546040A002000219F227F2358
:1025B000002628F08DF92C2000F022FDEDB244F623
:1025C000FF7700BF204600F025FD284600F022FDE1
:1025D000BE4206F10106F5D3002000F011FD01B066
:1025E000F0BD000081B043F63001C4F202010A6878
:1025F00002430A60096808400090009801B07047E3
:1026000081B043F64400C4F20200016841F4803115
:102610000160006800F480300090009801B07047BD
:102620002DE9F0410C46096891FAA1F2B2FA82F75D
:1026300031FA07F235D005464FF001080EE0626925
:102640002846314600F070F862682846314600F0AE
:102650008FF82168013731FA07F022D008FA07F025
:1026600011EA0006F5D060680138012809D8A2688F
:102670002846314600F0A2F8E2682846314600F0CC
:1026800087F822692846314600F088F860680228F9
:10269000DAD13006D3D062692846314600F034F8EA
:1026A000D2E70020BDE8F08140F21040C4F2020001
:1026B0000068C0F34000704740F21441C4F20201C8
:1026C00009680140081AB0FA80F04009704700001C
:1026D00040F218410004C4F2020108607047000093
:1026E000090481617047000040F218410004C4F2FF
:1026F00002010860704700001820C4F202004FF485
:10270000803101607047000091FAA1F1B1FA81F1C6
:10271000D0F820C089000F238B402CEA030302FA73
:1027200001F1194301627047090A91FAA1F1B1FA66
:1027300081F1D0F824C089000F238B402CEA0303D9
:1027400002FA01F1194341627047000040F218415A
:10275000C4F202010860704740F21841C4F202015D
:10276000086070471820C4F2020001210160704720
:1027700091FAA1F1B1FA81F1D0F800C04900032328
:102780008B402CEA030302FA01F119430160704700
:1027900043688B43514319434160704791FAA1F15B
:1027A000B1FA81F1D0F80CC0490003238B402CEA28
:1027B000030302FA01F11943C160704791FAA1F1D4
:1027C000B1FA81F1D0F808C0490003238B402CEA0C
:1027D000030302FA01F11943816070476FF00101B0
:1027E00001617047016821F08001016070470000BD
:1027F000016821F00101016070470000016841F0AB
:102800000101016070470000416941F0010141612F
:102810007047000070B50D4640F2FF710446006835
:10282000C4F2000100268C42C4F201060ADD40F623
:102830000002C4F2000294420DD0B4420BD040F624
:10284000004204E0B4F1804F05D040F20042C4F2EF
:102850000002944203D16A6820F0700010434FF6E2
:10286000FF72C4F20002944209DC8C4212DCB4F123
:10287000804F26D040F20041C4F200011FE044F234
:10288000FF31C4F201018C420FDCB44219D044F292
:10289000000112E040F60001C4F200018C4210D0A9
:1028A00040F60041C4F2000109E044F60001C4F220
:1028B00001018C4205D044F20041C4F201018C4276
:1028C00003D1E96820F4407008432060A9682046DD
:1028D00000F014F82988204600F01CF8B44202D118
:1028E000286900F019F82046FFF78EFF002070BD20
:1028F000006900F001007047C1627047C162704713
:10290000816844F20702914381607047002141626F
:1029100070470000816270473021C4F201010860F5
:102920007047000080B582B00020019043F630006F
:10293000C4F202000168002241F400110160006845
:10294000002100F40010019001980F20FEF7F2FC26
:102950000F20FEF7EBFC02B080BD00002DE9F04730
:1029600086B000278020CDE90477CDE90277CDE954
:102970000077FFF737FE01204FF00108FFF732FE26
:1029800002204FF00209FFF72DFE40F20044C4F28E
:102990000204A4F5806528460121FFF7A1FE204628
:1029A00041F23C0141F23C0AFFF79AFE6E4628468E
:1029B0003146CDE90088CDE902770497FFF730FE74
:1029C00020463146CDE90097CDF81080FFF728FE6C
:1029D00020463146CDE900A8CDE902770497FFF7FC
:1029E0001FFE06B0BDE8F08780B540F2045045F206
:1029F0000041C2F20000C4F2000141F6802200232F
:102A00004FF4804CC0F2060280E80E00C0E9033C9F
:102A1000C0E90533C0E90733FEF774F9002818BF91
:102A2000FDF7CCFE80BD000080B540F2585043F267
:102A30000001C2F20000C4F201014FF482720023CF
:102A400080E80E0000F114014FF4007C4FF0300ECE
:102A500081E808500A21C0E90333C0E90833C0E91E
:102A60000A31FEF7A1FF002818BFFDF7A7FE80BDC1
:102A700080B540F2B05043F60001C2F20000C4F24B
:102A800000014FF48272002380E80E0000F114016F
:102A90004FF4007C4FF0080E81E808500A21C0E98D
:102AA0000333C0E90833C0E90A31FEF77DFF00288F
:102AB00018BFFDF783FE80BD10B586B000240594D5
:102AC000CDE90344CDE90144FFF79AFD4FF6FF70CD
:102AD000ADF804400294CDE9030444F20004C4F2CA
:102AE000010401A92046FFF795FE2046FFF77AFE74
:102AF0002046FFF705FF06B010BD0000FEE700000E
:102B0000FEE7000000F0070080F00703042B28BF59
:102B100004234FF0FF3C03380CFA03F338BF0020C6
:102B2000994381400CFA00F022EA00000843704704
:102B300070470000010901EB810100F00F0000EB7C
:102B40004100C0B27047000080B540F2B050C2F200
:102B50000000FEF7A5FE80BD80B5806B0021C18717
:102B6000C186FEF79BFE80BD80B5806B01684A6818
:102B700022F003024A60416D41F0100141650121DC
:102B800080F85110FEF78AFE80BD000080B5806B92
:102B9000FFF716FA80BD0000B0B582B0846B054621
:102BA000FEF7A6F829680968C90528D402462068F6
:102BB000416821F020014160416821F0020141603B
:102BC0002046642100F020F818B1606D40F020002C
:102BD0006065A06838B9002001902068C168019143
:102BE0008068019001980020E086012084F851005F
:102BF000606D20B12046FEF751FE02B0B0BD204608
:102C0000FFF7D6F902B0B0BD10B582B040F20403B0
:102C1000C2F200031B6849F68174C1F25E64A3FB33
:102C2000043C04464FEA5C504FF47A7358430190D9
:102C30006068B0F5827F0DD113460A462046802198
:102C400000F014F878B1606D40F02000606503205A
:102C500002B010BD019830B1019801380190206890
:102C600080680006F6D4002002B010BD2DE9F043C4
:102C700081B01E4690460D468146FEF739F8301A5F
:102C800000EB0807FEF734F840F20401C2F200013D
:102C90000968C1F3CB3179430091D9F800108968F4
:102CA0002940A94219D1064608F1010406E000BFF7
:102CB000D9F8000080682840A8420ED1002CF7D037
:102CC000FEF716F8801BB8420BD200980099002836
:102CD00008BF0746481E0090EAE7002001B0BDE8A3
:102CE000F083D9E900014268B1F5827F22F0E00269
:102CF00042600BD1D9F80810B1F5004F02D0B1F500
:102D0000806F03D1016821F040010160D9F82810DB
:102D1000B1F5005F07D1016821F40051016001683D
:102D200041F400510160012089F85100002089F828
:102D30005000032001B0BDE8F083000080B51120F1
:102D400000F05EF941F2883004F080FC262000F0AB
:102D500057F9042000F05EF9B12000F051F90B2082
:102D600000F058F9142000F055F9C02000F048F99F
:102D7000082000F04FF9052000F04CF9C12000F0C8
:102D80003FF9022000F046F9C52000F039F944204F
:102D900000F040F9482000F03DF9C72000F030F97C
:102DA000C22000F037F93A2000F02AF9052000F09F
:102DB00031F92A2000F024F9002000F02BF900203E
:102DC00000F028F9002000F025F97F2000F022F91A
:102DD0002B2000F015F9002000F01CF9002000F075
:102DE00019F9002000F016F99F2000F013F93620A1
:102DF00000F006F9C82000F00DF9B72000F000F946
:102E0000002000F007F9F22000F0FAF8012000F0AD
:102E100001F9E02000F0F4F83F2000F0FBF8252055
:102E200000F0F8F8212000F0F5F8242000F0F2F886
:102E30001D2000F0EFF80D2000F0ECF84C2000F021
:102E4000E9F8B82000F0E6F8382000F0E3F81720A1
:102E500000F0E0F80F2000F0DDF8082000F0DAF8CC
:102E6000042000F0D7F8022000F0D4F8002000F091
:102E7000D1F8E12000F0C4F8002000F0CBF81A20CF
:102E800000F0C8F81E2000F0C5F80B2000F0C2F8D2
:102E9000122000F0BFF8122000F0BCF8332000F040
:102EA000B9F8472000F0B6F8472000F0B3F8082042
:102EB00000F0B0F8202000F0ADF8272000F0AAF8CC
:102EC0003C2000F0A7F83D2000F0A4F83F2000F0DF
:102ED000A1F8292000F094F840F6B83004F0B6FBD1
:102EE00080BD000070470000B0B501380024B4EB8D
:102EF000106F1CBF0120B0BD4EF21005CEF20005D0
:102F000068604FF0FF300F2100F0A6F80720AC609A
:102F100028602046B0BD000080B5012024F058F99B
:102F2000FEF796F980BD000070B592B006AC204661
:102F30003021FDF7CEFA002543F640000595CDE996
:102F40000355CDE901550095C4F20200016802263F
:102F500041F080510160006800F0805000900098BE
:102F600047F200000095C4F20000016841F44041BE
:102F70000160006800F44040009000980120099032
:102F800010200A9008200E906020CDE90F06042042
:102F9000119020460696CDE90C65FEF7DBFA78B96C
:102FA0000F20CDE901064FF48050CDE9040501A8BA
:102FB00003210395FEF7D2F9002804BF12B070BDBB
:102FC000FDF7FCFB4EF68850CEF20000016841F49C
:102FD000700101607047000040F20030C2F2000052
:102FE0000021017040F23030C2F200000121017076
:102FF00040F23230C2F2000001707047FEE700007C
:1030000010B504460820FFF76FFB20460FF03EFF87
:1030100010BD000010B504460820FFF79DFB2046B8
:103020000FF034FF10BD0000002848BF704700F0CB
:103030001F01012202FA01F14EF200124009CEF204
:10304000000242F8201070474EF60C50CEF20000FD
:103050000068C0F3022070474EF6145300F00F02D0
:10306000CEF2000309011A4400F16043B0F1FF3FC2
:10307000C8BF03F564421170704700004EF60C5152
:10308000CEF200010A684FF6FF031A4060F30A22ED
:1030900042F0806040F0FD700860704770B50568D0
:1030A0000446287800F01AF8002804BF002070BDFC
:1030B000681E0025064600BF811C216016F8011F0E
:1030C00005EB8502807801EB4201A1F1300500F0AB
:1030D00005F800283046EFD1284670BDA0F1300138
:1030E00000200A2938BF01207047000010B540F2C7
:1030F0003C10C2F20000442100F09CFE45F2455015
:10310000C0F600001E210022002424F0D1F840F275
:103110004811C2F20001086002F0B6F940F2D8206E
:10312000C2F20000047010BD2DE9F04381B00D46DD
:10313000814608461146164600F0F4F808B32846C2
:1031400031460022002700F09DF8002868D128466B
:1031500011F0C2F98046284611F008F971886A8892
:1031600001388B1A1BB2012B0DDBAF882B88A9F815
:1031700004700127A9F80030A9F80220A9F8061068
:1031800002E0FF274CE00027B6F906106A88431AD0
:1031900013441BB2012B10DBB5F9063099420CDA4F
:1031A0002B88B5F804C0104409EBC70229F8373062
:1031B00001375180A2F804C0D080B6F90220B5F9D9
:1031C0000210B6F90640B5F906008A42C8BF11469A
:1031D00033882A888442B8BF20469C1A24B2012C26
:1031E000A8F1010C0BDB441A24B2012C07DB09EB1C
:1031F000C70429F8372001376180A380E080B288B6
:103200002B88ACEB02061E4436B2012E08DB634469
:1032100009EBC70629F8372001377180B380F080A9
:1032200078B201B0BDE8F08370B50346B1F9000093
:10323000B2F90040B1F902C0B2F90250B1F904E0AC
:10324000B2F90460A042B1F90610B2F90620C8BF75
:103250000446AC451C80C8BF6546B6455D80B8BF16
:10326000764691429E80B8BF0A460020B4424FF095
:103270000001D8BF01219542D8BF01200840DA8063
:1032800070BD00002DE9F04381B00C46B0F900702C
:10329000B1F900108F423DDBB0F90260B4F90210C1
:1032A0008E4237DBB0F90490B4F90410894531DC63
:1032B000B0F90680B4F9060080452BDC15466AB3E8
:1032C000694620462A46ADF80070ADF8026000F06D
:1032D00097F8F8B1694620462A46ADF80090ADF857
:1032E000026000F08DF8A8B1694620462A46ADF884
:1032F0000070ADF8028000F083F858B169462046AE
:103300002A46ADF80090ADF8028000F079F801B0DF
:10331000BDE8F083002001B0BDE8F083012001B0DA
:10332000BDE8F083B0F90020B1F904309A4213DC13
:10333000B0F90420B1F900309A420DDBB0F9022057
:10334000B1F906309A4207DCB0F90600B1F9021073
:103350008842A4BF01207047002070472DE9F04348
:1033600081B00C46B0F90460B1F900108E4211DB57
:10337000B0F90670B4F902108F420BDBB0F900808F
:10338000B4F90410884505DCB0F90290B4F90600E0
:10339000814503DD012001B0BDE8F0831546EAB1A7
:1033A000694620462A46ADF80080ADF8029000F04C
:1033B00027F898B9694620462A46ADF80060ADF86E
:1033C000029000F01DF848B9694620462A46ADF83B
:1033D0000080ADF8027000F013F818B1002001B0C1
:1033E000BDE8F083694620462A46ADF80060ADF896
:1033F000027000F005F880F0010001B0BDE8F08334
:103400002DE9F04F83B00646B1F90000B6F900701F
:10341000B8420EDBB6F904A050450ADCB1F902004F
:10342000B6F902800C46404503DBB6F906904845E4
:1034300003DD002003B0BDE8F08F1546012A6BDBE9
:10344000304611F049F881B200EBD1300FFA80FB21
:103450004FEA6B000090304610F088FF81B200EB1D
:10346000D13000B200994610B1EB600FB8BF4FEAFF
:103470006B06AE42A8BF2E46ADF80470374406EB8B
:10348000080501A821460022ADF80870ADF80680B5
:10349000ADF80A50FFF7B4FF30B1B819ADF8080025
:1034A000A819ADF80A0022E0A9EB060B01A82146F5
:1034B0000022ADF806B0ADF80A90FFF7A1FF18B1F1
:1034C000B819ADF808000EE0AAEB060701A82146DE
:1034D0000022ADF80470ADF808A0FFF791FF68B1C5
:1034E000B81BADF80400ABEB0600ADF8060001A870
:1034F000214620F0E1FA03B0BDE8F08F01A8214693
:103500000022ADF80680ADF80A50FFF779FF18B138
:10351000B81BADF80400C3E7012003B0BDE8F08F8D
:1035200070B5B1F90030B2F90040B1F902C0B2F99A
:103530000250B1F904E0B2F90460A342B1F90610F7
:10354000B2F90620B8BF1C46AC450480B8BF65463A
:10355000B6454580C8BF764686809142C8BF0A46B8
:10356000C28070BDF0B581B0054623F021FE40F267
:10357000883604460020C2F2000600902DB1E868AB
:103580003060284623F0AEFF02E013F013FC3060F9
:103590003068006920F08EF930684069002818BF53
:1035A00020F088F93068C06920F084F93068006A3A
:1035B00020F080F930680169002957D020F04AFBDB
:1035C00026F0CEF925F0CCFE3068B0F85011002975
:1035D00044D00068017CC90721D0C0684068F0B1C0
:1035E0003068B0F85011D1B130254FF4987708E029
:1035F0003068A7F22F12B0F85011083501378A420F
:103600000DD2C15D0029F3D100F5AC7000F072FC61
:1036100031684A195268495942600160E8E73068E8
:103620004FF4807130301AF08BFD3068202100F5A6
:1036300098701AF085FD30680021A0F850112046DE
:1036400023F0B0FD009030680068436A33B14EF259
:103650001402C2F200020099126898471AF05EFB49
:1036600000F034F800F008F801B0F0BD0021A0F837
:10367000501101B0F0BD0000B0B540F24C1500246F
:10368000C2F200052859002818BF1AF0E9FB2819D2
:103690001C211AF055FD1C34702C08BFB0BDF1E799
:1036A00040F29841C2F20001096804E00A7E42F04B
:1036B00001020A764969002908BF70474A688242B8
:1036C000F4D00A688242F5D1F0E7000070470000AC
:1036D00080B540F24820C2F20000042100F0AAFBAD
:1036E00080BD000080B540F25820C2F200002021C9
:1036F00000F0A0FB80BD00002DE9F04F85B00E9ECC
:103700001D46002B834608BFB6F5807F6DD0DDF8DF
:103710003C800023019301A8ADF80810CDF80A30D1
:10372000ADF80E20ADF81010ADF812202946324643
:103730004346071D00F1080900F10C0A20F010F9BA
:10374000384629463246434620F00AF9484629467B
:103750003246434620F004F9504629463246434655
:1037600020F0FEF8BDF90420BDF90830BDF90C6069
:10377000BDF910409A421F46BDF90610BDF90A0076
:10378000B8BF1746A6422546B8BF3546AF42B8BFB8
:103790003D46AF1E9A42ABF80070C8BF1346A64222
:1037A000C8BF3446A342C8BF1C46A21CBDF90E3098
:1037B000BDF91260ABF8042081420246B8BF0A4648
:1037C000B3423746B8BF1F46BA42B8BF1746BA1E03
:1037D0008142ABF80220C8BF0846B342C8BF1E46AC
:1037E000B042C8BF0646B01C06E00020CBF800007F
:1037F000481EABF80400501EABF8060005B0BDE84B
:10380000F08F0000F0B581B016460C46074623F055
:10381000CFFCA2B240F26424C2F200040546204666
:103820003946334618F044FA68B1E0690021A162D4
:1038300018B9284623F0B6FCE061E069002804BF0F
:103840000120E06107E020462C211AF079FC4FF0BE
:103850000040A0620024204601B0F0BD10B540F247
:103860009020C2F20000142100F0E4FA18F0DAF916
:10387000E0B14BF27151C0F60101044618F0A6FA0E
:103880004BF6B911C0F60101204618F0A1FA4BF62B
:103890008531C0F60101204618F09CFA4BF23951EF
:1038A000C0F60101204618F08FFA10BDFEE70000B7
:1038B000B0B50C460546084610211AF041FC2868B0
:1038C0000178042908D0022908D0012908D1A98A41
:1038D0002180E98A618003E00A2100E0E9686160F3
:1038E0004268002A08BFB0BD21469047B0BD000025
:1038F0002DE9F04784B08046814638F8140F10B99E
:10390000B9F81600A0B3D9F82CA0BAF1000F1ED058
:10391000BAF1000F2FD04FF480760024574600BF35
:1039200038461DF02BFF044438461DF0C3FFC10D7F
:1039300050FA81F000B2050A38461CF011F907462A
:1039400006FB05F024B2002F06B2E9D116E0484686
:103950000BF0C8FD60B1824648460EF0AFFC504601
:103960000921002216F04CFF99F801008007CFD5FD
:1039700004B0BDE8F08700244FF48076B6F5807F70
:1039800008BF002C0DD04FF4803090FBF6F00021E2
:103990000391A1EB0441091402B203AB40461FF0AE
:1039A000DFFF99F84010002001F00F01ADF80A0088
:1039B0000329ADF80800504611D11CF0D7F907468D
:1039C00050461CF065F9B8F900100246032650462F
:1039D0003B4600960BF072F8ADF80A0010E01CF0C0
:1039E0003FFA064650461CF0CBF8B9F916100346CC
:1039F0000C275046324600970BF060F8ADF80800EF
:103A000050461CF019F9BDF90A10012905DB10F028
:103A1000010104BF0021ADF80A10810707D4BDF9E8
:103A20000A10B1F1FF3FDCBF0021ADF80A104107D9
:103A300006D4BDF908100129A4BF0021ADF8081073
:103A4000000707D4BDF90800B0F1FF3FDCBF00203C
:103A5000ADF808000DF10A0102AA484626F0F0FB75
:103A6000BDF90A10BDF90820504600F0CFFA99F8C8
:103A7000010080073FF57CAFBDF80A00B9F81810C7
:103A8000B9F81A200844BDF80810A9F81800501811
:103A9000A9F81A0004B0BDE8F08700002DE9F0474E
:103AA00082B0C56A002D00F0B680044690F8400050
:103AB000000700F0B08018F0C3FB81460068402189
:103AC000467E28461EF074F8002804BF0020E061FE
:103AD00028461CF0B5F9804628461CF0B9F994F840
:103AE0004010824601F00F01032925D00C2940F037
:103AF00090800027BAF1000FA78340D0204626F01F
:103B0000F9FBADF806000DF1060220460021E7831F
:103B100026F096FBBDF906304EF20101CFF6FF719B
:103B2000284641F6FF720BF0E7FEBDF80610084488
:103B300002B22846002120E00027B8F1000FE783F9
:103B400041D0204626F0B8FBADF8040001A920467C
:103B50000022A78326F074FBBDF904304EF2010168
:103B6000CFF6FF71284641F6FF720BF029FEBDF833
:103B700004100022084401B22846012347E0B4F9AA
:103B80001E00C6F16401484348F21F51C5F2EB1113
:103B900050FB01F0410901EBD070E08328461BF097
:103BA000EFFF064628461CF05BF9B4F91E100246EA
:103BB0000C272846334600970AF080FF0246E08330
:103BC0002846002122E0B4F91C00C6F164014843F4
:103BD00048F21F51C5F2EB1150FB01F0410901EB16
:103BE000D070A08328461CF053F8064628461CF0E7
:103BF000BDF8B4F91C100346032728463246009747
:103C00000AF05CFF0146A0832846002200231FF033
:103C100049F9A08B10B102B0BDE8F087E08B002815
:103C2000F9D1BAF1000F1BD128461CF019F907464B
:103C300028461BF0A5FF002FD8BF012810DBB7F1E5
:103C4000FF3F07DDB0F1FF3F0ADC404202B22846E9
:103C5000002102E0284600213A4601231FF022F904
:103C6000B8F1000F1AD128461CF012F80746284672
:103C70001CF07CF8002FD8BF01280FDBB7F1FF3F05
:103C800006DDB0F1FF3F09DC404201B2284601E009
:103C900028463946002201231FF004F928460A214C
:103CA0004A4616F0ADFD60788007B4D494F8400021
:103CB00000F0F00084F840000020E06202B0BDE8AF
:103CC000F0870000F0B585B004460D4610B134B958
:103CD00005B0F0BD13F06EF80446002CF8D0204675
:103CE00013F0EEF80028F3D094F828004007EFD442
:103CF0000020C5B30290204613F074F80138ADF8E7
:103D00000C00204613F0C6F80138ADF80E006846E6
:103D100002AA2946FFF788FA0028D9D02068017C3A
:103D2000890724D482690AB169469047B4F85001E2
:103D300090B104F1300500276E4600BF3046294699
:103D40000022FFF79FFA0028C2D1B4F850010137D2
:103D5000874205F10805F1D31F2816D804EBC000EF
:103D60003030694617E0A4F8500105B0F0BD029864
:103D7000039920630120A4F8500160686163002862
:103D8000A6D023F0BFFB05B0F0BD0020A4F8500181
:103D900004F1300002A910F023FAB4F85011606861
:103DA00001310028A4F8501118BF23F0ABFB05B077
:103DB000F0BD000070B5044600F014F8002808BFFC
:103DC00070BD05462046294600F026F806462046E6
:103DD000294600F0B9F828461AF042F8002E354678
:103DE000F0D170BD002814BF40680020704700006B
:103DF000B0B50446FFF7F6FF58B10146002500BFF5
:103E00002046013500F008F801460028F8D1284680
:103E1000B0BD0020B0BD0000006808444068704795
:103E20000068085870470000002814BF8068002010
:103E3000704700000331002221F00301C0E90012A5
:103E400082607047B0B504460068083019F042FF40
:103E50000546A0B120462946002224F015FE6268DE
:103E60002046294624F008FE616819B120462A46FA
:103E700024F00AFEA0686560002808BFA5602846F7
:103E8000B0BD0000F0B581B04FF0000478B30D462E
:103E900069B30646FFF7A6FFA8421FD03068083076
:103EA00019F018FF10B3044630462946FFF7B8FF53
:103EB000074630463946224624F0DEFD304621468C
:103EC0003A4624F0E1FD30462946224624F0DCFD46
:103ED000304621462A4624F0CFFD08E03046FFF761
:103EE000B1FF0446002808BF002400E0002420465B
:103EF00001B0F0BDB0B504460068083019F0EAFE24
:103F00000546A0B120462946002224F0B5FDA2684E
:103F10002046294624F0B8FDA16819B120462A465A
:103F200024F0AAFD6068A560002808BF65602846E7
:103F3000B0BD000028B1416809B9806808B100200F
:103F4000704701207047000070B5002808BF70BDA1
:103F500004460D46FFF746FFA8421AD02046FFF759
:103F600063FF064620462946FFF75AFFAE42064643
:103F70001BD020462946FFF74FFF05462046314615
:103F80002A4624F079FD20462946324624F07CFD5D
:103F900070BD20462946FFF73FFF606068B10146CB
:103FA0002046002224F070FD70BDA66046B1204678
:103FB0003146002224F060FD70BD0020A06070BD7D
:103FC0000020606070BD000010B504460068826883
:103FD0000AB12146904720680068002808BF10BD3C
:103FE00020602046FFF7F0FF10BD00008068002829
:103FF00014BFC08A002000B270470000806800280B
:104000000EBF0020807E80097047000070B50E460C
:1040100011431BD0154604461AF05AFEA06801232E
:10402000018A428A31440182511941822046314637
:104030002A461EF009F920460B21002216F0E0FB6B
:10404000012818BF70BD20461EF052F8012070BD37
:10405000F0B581B0144690B106460F461CF02EFD17
:1040600078B10546006870B1304639461CF02CFD29
:1040700058B12B680246A1B22846984706E0204670
:1040800004E0204602E0204600E02046C0EA0400AA
:1040900001B0F0BD2DE9F04F91B00446408CDDF841
:1040A00068B040F00800608422841646BBF80820FF
:1040B00020461F468A461DF07DF92784BBF808205C
:1040C0000546204651461DF075F9618C814621F068
:1040D00008004D45608406D104BF89EA05005FEA07
:1040E000004000F087802684BBF808202046514617
:1040F0001DF060F980462046514627840DF038F8BF
:104100000068BBF80810424621F0F0FEBBF808003A
:104110000B2828D147F6FF76B14518BFB04522D10C
:1041200020461DF0FBFC81B200EBD13000B24510FF
:1041300020461BF0CDFC81B200EBD13000B2B0457F
:104140004FEA600005D1691C00F101084145B8BF84
:10415000884647F6FF71894505D1691C00F10109C0
:104160004945B8BF894640F2AC20C2F20000FFF7D3
:1041700069FE002842D0C0E9038904600646BBF806
:1041800008006C46B0802046C6F808A00FF072F90F
:10419000204631460FF0B6FA4DF27111C0F6020119
:1041A00020460FF0EDF920460FF066FA4DF2C921D6
:1041B000C0F6020120460FF02BFA20460021FF2214
:1041C0000FF07AFABBF8001020460FF05FFABBF848
:1041D000021020460FF0C4F9DBF80C1020460FF057
:1041E000EFF920460FF0C0F9DBF8100006902046EA
:1041F0000FF0A4FA11B0BDE8F08F00BFFEE7000099
:1042000080B540F2AC20C2F200001421FFF712FE8C
:1042100080BD00002DE9F04F81B00446408C10F4C1
:104220007C7F00F01C816FEA01096FEA020B4FF0FE
:10423000000AE84600250AE00120002800F012816B
:10424000608C0135C0F30510854280F00D81E66871
:1042500006EBC50040688101F2D420F07F401FF0DA
:10426000F7FA10EA090100EA0B00B0FA80F04FEA11
:10427000501018BF01214140DED156F835601021A1
:104280003046424621F0ECFA80BB304611214246CE
:1042900021F0E6FA50BB30461221424621F0E0FA06
:1042A00020BB30461321424621F0DAFAF0B93046FD
:1042B0001521424621F0D4FAC0B9304614214246B5
:1042C00021F0CEFA90B930460A21424621F0C8FAD0
:1042D00060B930466B21424621F0C2FA30B930460F
:1042E0006C21424621F0BCFA002859D00127002F4A
:1042F00060D130466921424621F0B2FA002849D106
:1043000030466A21424621F0ABFA002842D13046BD
:104310006E21424621F0A4FAE0BB30466D214246B0
:1043200021F09EFAB0BB30463721424621F098FA80
:1043300080BB30463821424621F092FA50BB3046CD
:104340003521424621F08CFA20BB304640214246BE
:1043500021F086FAF0B930464521424621F080FA34
:10436000C0B930464121424621F07AFA90B9304630
:104370004221424621F074FA60B930464321424658
:1043800021F06EFA30B930464921424621F068FAF0
:1043900000285BD04FF0020A002F3FF44DAF0CE035
:1043A000304601214246012721F05AFA50B100BFA0
:1043B000002F9ED0002F3FF43FAF002000287FF455
:1043C0003FAF4FE030460421424621F049FA002831
:1043D0007FF48CAF30460221424621F041FA00289A
:1043E0007FF484AF30460321424621F039FA002899
:1043F0007FF47CAF30460521424621F031FA002897
:104400007FF474AF30460621424621F029FA002895
:104410007FF46CAF30463221424621F021FA002869
:104420007FF464AF30466E21424621F019FA00282D
:104430007FF45CAF30466D21424621F011FA074609
:10444000002818BF0127002FB4D152E7BAF1000F9E
:1044500008BF4FF0010A002F3FF4EEAEADE74FF07A
:10446000000A01E04FF0030A5FFA8AF001B0BDE8EC
:10447000F08F000040F28830C2F200000068704700
:1044800070470000C0F30410072828BF07207047BA
:104490004FF6FF71884204BF1F207047002804BFF9
:1044A00000207047702805D84DF6F021C0F60201B3
:1044B000085C704740F2B821C2F20001096851B1AE
:1044C00040F2BC22C2F200027138126880B282420D
:1044D00084BF085C704700207047000080B540F240
:1044E000C820C2F200001821FFF7A4FC012022F02E
:1044F00019FF80BD2DE9F041F8B1164604460D467E
:10450000FBF796FF40F20C08C2F20008D8F8002032
:104510000746204629469047D8F800200546204403
:1045200031469047391A8D4288BFBDE8F08120445A
:10453000425D625501358D42FAD9BDE8F081000037
:104540002DE9F04140F21408C2F200081446D8F8F0
:1045500000200F4619461D4606469047386040B178
:104560002868D8F800203044002190472060BDE83A
:10457000F08100202060BDE8F08100002DE9F04FBF
:1045800087B0DDF840900446B9F1000F1F46904611
:104590008B461CBF0020A9F8000034B3BBF1000F0C
:1045A0004FF0000079D02178002976D0DDF844A0C2
:1045B0001AF0060F1DD00020012142F2014200E056
:1045C0000130235C0D2BFBD801FA03F71742F7D01B
:1045D000002B18BF0130B9F1000F5ED04FF6FF710C
:1045E000A9F8001007B0BDE8F08F002007B0BDE8C3
:1045F000F08F0026012F8DF81B60059634DB2078A4
:1046000090B32046002100260022B1FA81F10492E5
:10461000490904AA019203913BB2594642460DF161
:104620001B05CDF800A0029523F0B0F8BDF81010DE
:104630000E44C8B1059B227818440A2A059013D06D
:104640000D2A11D0225C0D2A0CD00A2A0AD0781A21
:1046500007B2012F08DB0599605C002804EB01001C
:10466000D2D101E001300590059880B940F21400E4
:10467000C2F20000026805A920469047B9F1000F78
:1046800005D001465846002216F006FA0646B9F152
:10469000000F18BFA9F80060059807B0BDE8F08FBB
:1046A0002DE9F04381B030B3144622B305462046CD
:1046B0008846FBF7BDFEF0B106462846FBF7B8FE7C
:1046C000074640F20C00C2F200000268284641464C
:1046D00007EB060990478119894507D3AA1900BF3E
:1046E000EB5DD355013FF3198B42F9D228442146A3
:1046F000324619F0D1FC01B0BDE8F083A0F59C4131
:1047000045F2A61291423CBF01207047202802BF0B
:10471000002181F00100704748F6B22C0122C0F65A
:10472000030C00BFD11FB1FA81F14FEA511104D03F
:104730001CF8023001328342F4D181F0010070474D
:10474000A0F59C4145F2A61291423CBF0120704762
:10475000202802BF002181F00100704748F6B22CEA
:104760000122C0F6030C00BFD11FB1FA81F14FEA5C
:10477000511104D01CF8023001328342F4D181F08F
:104780000100704723290AD103780022022B08D0A8
:10479000012B09D0002B04BF0122027006E0002289
:1047A00004E00270012201E0002202700378012B74
:1047B00006D120291CBF012070470221012201706F
:1047C000104670472DE9F04182B004460B46CDE912
:1047D00000110020002122464FF0000823F0E0FAEB
:1047E000451C0746284619F075FA58B100F80780AD
:1047F000019B29462246064623F0D2FA304602B0F3
:10480000BDE8F081FEE700002DE9F04702B3DDF8D6
:1048100020909A4614460F46804606E064F0010058
:104820003044441C05EB0A0774B1660806FB0A75A0
:1048300040462946C8470128F0DAB0F1FF3F344628
:10484000F2DD2846BDE8F08700252846BDE8F08760
:104850000020BDE8F08700002DE9F04F85B0149CE2
:104860000DF138099246DDE9122599E8C0028B4620
:10487000A107804635D44DB1E00708D014F00C00F4
:1048800018BF012040EA09002D1A00E000259742D8
:1048900019D21F2F17D8F94311444446C7F11F08F6
:1048A000F019414538BF884608F101013022994688
:1048B000FBF7DDFD129A4B46DDF8409008EB070050
:1048C000A046149C471CE0070BD0AF4209D21F2F13
:1048D00007D8302039460137AF42705438BF202FF7
:1048E000F8D3E00629D5119861050CD45FB1974241
:1048F00018BFAF4207D1791E0A4618BFBA1E10284A
:1049000018BF0A46174610280BD114F0200103D116
:10491000202F01D2782009E019B1202F01D2582090
:1049200004E0022804D11F2F02D86220F05501377D
:104930001F2F9EBF3020F05501371F2F11D8B9F11E
:10494000000F03D02D20F05501370AE0600705D491
:10495000200742BF2020F055013702E02B20F05500
:104960000137404659465246CDE900670295039407
:1049700000F0A6F805B0BDE8F08F00002DE9F04F7B
:1049800091B01646DDE91AC21F46DDE91CB3DDF819
:104990007C90BCF1000F08BF29F01009BCF1000F9A
:1049A000CDE9076704D119F4806401D000241EE02A
:1049B00009F0200484F0610404F1F60800250DF1EB
:1049C000240A00BFBCFBFBF7464607FB1BC404F0F0
:1049D000FE0EBEF10A0F38BF302626446C1CDC45A3
:1049E0000AF8056003D31F2D2546BC46EAD309AF5C
:1049F000CDE90074CDE9022B0493DDE907231E9F66
:104A0000CDF818900597FFF727FF11B0BDE8F08F9C
:104A10002DE9F04F93B0DDE91C65DDF8908056EA92
:104A20000507209C08BF28F010080DF11C0C8CE82D
:104A30000F0027B918F4806701D0002227E008F0A2
:104A40002000219F80F0610000F1F6094FF0000A7C
:104A50000DF12C0B3046294622463B46FBF710FC55
:104A600000FB146202F0FE030A2B4B4638BF3023D2
:104A7000361B13440AF1010275EB07060BF80A30E6
:104A800005D3BAF11F0F924606460D46E2D30BA896
:104A9000CDE900021E9807ABCDE902042298239FBE
:104AA00004900FCBCDF818800597FFF7D5FE13B013
:104AB000BDE8F08F9A4238BF8854704770470000B5
:104AC0002DE9F04F83B0DDF83C80DDF834A0994645
:104AD00015468B4606465FEA8870144610D10E983C
:104AE0002C4682450CD20E982A46A0EB0A0700BF3E
:104AF000202059464B46541CB047013F2246F7D16F
:104B0000BAF1000F08F002000195029010D00C9845
:104B1000A0F1010818F80A00594622464B46AAF1AE
:104B20000105671CB047002D3C46AA46F2D100E0C3
:104B30002746029888B10199DDF83880781A4045F7
:104B40000DD24D42202059463A464B467C1CB04778
:104B5000281940452746F5D302E03C4600E03C4694
:104B6000204603B0BDE8F08F024659B10278002A12
:104B7000024607D04942024612F8013F013101D2F4
:104B8000002BF9D1101A70472DE9F04F91B08A46E9
:104B90001A9944F6BD261446C0F600064FF0000BE5
:104BA0004FF000080E911093BAF1000F18BF06469F
:104BB00010990878002800F07882252809D0F0E0C4
:104BC000514642462346B0471098A84601301090FF
:104BD000EEE7481C4FF00009109004E0481C1090CC
:104BE0000020002822D110990878A0F12002102A74
:104BF0004FF00100F5D8DFE802F00D0C0C090C0CA9
:104C00000C0C0C0C0C100C130C0C160049F01009B9
:104C1000E4E7E6E749F00809E0E749F00409DDE7E1
:104C200049F00209DAE749F00109D7E7109D2F782A
:104C30003846FEF753FA18B110A8FEF72FFA13E022
:104C40002A2F10D10E9951F8040B00280E910D90C7
:104C500044BF41420D91002805F1010048BF49F0D1
:104C60000209109001E000200D90109D28782E2858
:104C700019D1681C10906F7849F480693846FEF7A6
:104C80002DFA20B110A8FEF709FA05460CE02A2FEC
:104C900009D10E9951F8040B0E9120EAE071A81C7D
:104CA0000D46109000E000251098017868394FEA11
:104CB0007101092917D8DFE801F008127B161616D2
:104CC0000516160549F480790BE0411C10914178D6
:104CD000682940F07F8049F0C009023002E049F4C1
:104CE000007901301090109A1078A0F12503532B11
:104CF00000F257801021DFE813F0A80054005400A0
:104D00005400540054005400540054005400540003
:104D100054005400540054005400540054005400F3
:104D200054005400540054005400540054005400E3
:104D300054005400540054005400540054005400D3
:104D400054005400540054005400540054005400C3
:104D500064005400540054005400540054005400A3
:104D6000AD0054005400540054005400540054004A
:104D700054005400AC003E0157005400540054004D
:104D80005400570054005400540054005400730061
:104D9000640054005400750054005700540054003F
:104DA000AD0008F101050BE729F010090A2151E0D7
:104DB000411C109141786C290FD149F4407902309F
:104DC00090E712F8010F49F48879562808BF10922D
:104DD00010213FE049F0800985E749F4807982E7B6
:104DE000082137E00E98294650F8047B002D0E90DC
:104DF000384608BF4FF0FF31FFF7B6FE09F4806B6D
:104E0000A842294638BF0146BBF1000F08BF014642
:104E100019F002000C9040F0D7800D98814280F08C
:104E2000EF800A97A946421C471A00250B9200BF43
:104E300008EB0502202051462346B0470135AF421A
:104E4000F6D10A9FA8444D46DCE008F10105252073
:104E5000B6E602211098007840F00802582A08BFF0
:104E600049F02009642803D0692818BF29F00C09EB
:104E70005FEA495248BF29F00109562814D0692831
:104E800001D0642822D15FEA89502FD45FEAC9504B
:104E90004ED45FEA496000F185800E985FEA0962AE
:104EA000006848BF00B27FE00E99A4EB080251F8F9
:104EB000040B0E9141680F680AEB08010F97036815
:104EC00030460097FFF760FE804495E05FEA895026
:104ED00037D45FEAC95072D45FEA496079D40E9B37
:104EE0005FEA0962186848BF80B274E00E98073024
:104EF00020F007000346426853F8080BCDE9041B75
:104F000010EBE2700E9342EBE2730D9983EAE273C9
:104F100080EAE270CDE90719D70FCDE900033046EA
:104F200051464246234606950297FFF771FD62E01F
:104F30000E9A52F8040B0E920246002848BF4242D5
:104F400039E00E98073020F007000346426853F816
:104F5000080BCDE9041B0D990E93CDE90719CDE996
:104F6000000230465146424623460695CDF808B029
:104F7000FFF74EFD3FE019F0020927D10D980228F6
:104F80006DD300F1010B4542002700BF08EB07027B
:104F9000202051462346B0470137E8190130F5D1AA
:104FA000B8445EE00E9800780246002848BF4242AE
:104FB0000E9B04330E93C00FCDE900200FE00E9A34
:104FC00052F8040B0E9208E00B911BE04FF0010B1E
:104FD00047E00E9B187804330E93CDE9000B0D9833
:104FE000CDE9021504903046514642462346CDF89D
:104FF0001490FFF7C3FC8046109801301090D7E55D
:10500000481C0B903878A0B107F101090BE000BFF4
:10501000C0B251464246234608F10107B04719F88D
:10502000010BB84630B1BBF1000FF1D00DB1013D1D
:10503000EEE747460C98A0B30D980B99814230D209
:10504000451A4FF0000B00BF202051463A46234638
:1050500007F10108B047013D4746F5D1CCE74FF0D5
:10506000020B0E99424611F8040B23460E9151464D
:1050700008F10107B047B9F1000F12D00D98834530
:105080000FD2A0EB0B054FF0000B00BF20205146C4
:105090003A46234607F10108B047013D4746F5D19E
:1050A000AAE7B8464FF0000BA6E74246002051465B
:1050B0002346A04528BF621EB047404611B0BDE858
:1050C000F08F000010B54FF0000448B100F018F860
:1050D0000C28014698BF0C21B0F5803F38BF0C4624
:1050E000204610BD20F00300704700004A1E114208
:1050F00004D108440138494208407047FEE70000E7
:105100004A1E114204D10844013849420840704700
:10511000FEE700002DE9F041044608680D46012134
:105120006186C0B148F6BA280026C0F603080027F9
:1051300006E000BF01370136B0B255F8200058B183
:10514000017849B14146FBF7EBF90028F2D1608EB6
:1051500001306086EFE70027208EBDB2854208BF90
:10516000BDE8F081A06A18B118F07AFE0020A062B4
:10517000E06A18B118F074FE0020E062E80018F050
:10518000A9FDA06280B1680018F0A4FDE06268B1DA
:10519000A16A002908BF0F46B9B2490018F0D0FF34
:1051A0002786BDE8F08100BFFEE700BFFEE70000F4
:1051B0002DE9F04F85B09246427A0C4602F0070185
:1051C00040F29C4940F25428022956464FF0130100
:1051D000C2F20009C2F2000808BF26465445C8BF03
:1051E000A24601EB4A02D9F80070D8F8001040F24C
:1051F000A04BC2F2000B22F003057A1ADBF8001074
:105200002A448A4204D2796821F0004179603BE067
:105210008D42039009D9284618F05CFD20B107465D
:10522000406840F000402DE0FEE7DBF80010CDE9DB
:1052300001468A421FD94FF2D14442F61D47C0F6BB
:10524000000404AEC0F601074FF0FF300490204682
:10525000314600220DF0A6FC3846314600220DF002
:10526000A1FCD9F80000D8F80010401ADBF80010B3
:1052700028448842E8D8D9F80070DDE9014678680A
:1052800020F000407860039831B2224601F0B4FE6D
:10529000386078680121B0F1FF3F61F31E0078604B
:1052A000A7F80CA0FE8108DDD9F8000000F110017C
:1052B0002844B960C9F8000002E007F11000B860A6
:1052C000384605B0BDE8F08FF0B583B040F2280352
:1052D000C2F200031A888A424FF000028DF80B20B8
:1052E0008DF80A208DF8092006D040F22A0CC2F26F
:1052F000000CFF228CF8002090F83C20198002F06E
:105300000302012A40D0022A7DD140F22A0CC2F2C7
:10531000000C9CF80030022B40F2D423C2F20003B0
:105320001ED0878C46F6174607EB47077F02FF081B
:10533000C1F2C166A7FB067690F8260033277843B2
:105340004CF6CD47CCF6CC47A0FB0707B008188039
:10535000380940F2D627C2F2000738708CF80020D6
:1053600040F2D622C2F2000292F800C018880DF175
:105370000A020DF109070092CAB20DF10B03614652
:10538000019709F03FFD75E040F22A03C2F20003E5
:105390001F78012F21D0878C46F6174607EB470769
:1053A0007F02FF08C1F2C166A7FB067690F82700CE
:1053B000332778434CF6CD47CCF6CC47A0FB070704
:1053C000B00840F2D426C2F200063080380940F21C
:1053D000D727C2F2000738701A7040F2D42040F28A
:1053E000D722C2F20000C2F20002008812780DF14A
:1053F0000A030DF109070093C9B20DF10B030197E0
:1054000009F000FD36E040F22A04C2F200042378DD
:1054100040F2D62E40F2D72C9342C2F2000EC2F2D6
:10542000000C15D090F8263090F8270033254CF664
:10543000CD466B43CCF6CC46A3FB06376843A0FBB6
:10544000060338098EF8000018098CF80000227055
:1054500001EB41009EF800109CF8002040000DF187
:105460000A030DF10907009380B20DF10B030197B8
:1054700009F0C8FC9DF80B009DF80A109DF8092062
:1054800010F07CFF03B0F0BD80B540F2D820C2F22E
:1054900000000121017040F23C10C2F20000FEF752
:1054A000A1FC014640F24810C2F20000006811B1B0
:1054B00022F028F880BD22F015F880BD10B5044612
:1054C00090F8420010F0020109D1B4F8402032B146
:1054D0004FF6FF739A421CBF013AA4F84020B4F87B
:1054E000402012B9C1B9A26BB2B1D4E90E235B421C
:1054F000002A236308BF10BD11B9616B49422163C3
:1055000080F0020084F84200206AD4E90A13C4E95A
:105510000A022162A36310BD40F23C10C2F20000F7
:105520002146FEF711FDFFF7AFFFE16809B1204604
:105530008847216909B120468847204618F090FC29
:1055400010BD00002DE9F04740F21868C2F20008D3
:10555000D8F8000021F026FE40F2D929C2F2000955
:1055600099F80010044681F0010089F8000040F22B
:105570003C10C2F20000FEF735FC002863D040F278
:10558000D82740F23C150646C2F200074FF0000A49
:10559000C2F2000507E000BF28463146FEF73CFC9A
:1055A000064600284FD096F8420099F80010C0F344
:1055B00080028A4287F800A03ED000F0FB0242EA57
:1055C0008101020786F842101AD4316B002917DCDA
:1055D000091915D4C00709D1716939B13046884716
:1055E000316AB26A014410443162B062B16809B1F3
:1055F0003046884796F8420040F0080086F842009E
:10560000306B0019306317D4F16A8842C8BF316328
:10561000F16930468847726A904205D07268014647
:1056200070620AB130689047D6E90B01814203DB12
:105630003046FFF743FF00BF38780128ACD1284639
:10564000FEF7D0FBACE721F0B3FDC8F80000BDE8E1
:10565000F0870000B0B5044640680D4610B12946F9
:10566000FFF7F8FF2268002A08BFB0BD2046294690
:105670009047B0BD80B589B20EF00CFD80BD000032
:1056800080B589B20EF048FD80BD00002DE9F04FD5
:1056900097B09246279A1691111F102912931190D4
:1056A00000F2BA81002009900220159000220F928A
:1056B000DFE811F0250011001500B201B201B201BE
:1056C000B201B201B201B201B201B201B201B20142
:1056D000B201B2011F0001200F9003200CE0FEF781
:1056E000C9FE0068008F099001200F9002201590DC
:1056F00005E001200F900220159000200990249DC4
:10570000012DC0F289811299119A01FB0AF002EB76
:10571000400001901698DDF8989001380B90AAF19E
:10572000010002901598DDE9224648430A90DDE920
:1057300020CB4FF000080027CDF840A009E000BFC3
:10574000002009F8080001370FFA87F8A84580F211
:10575000638108FB04F00CEB20200028F0D408FB48
:1057600006F10BEB21210A125245E9DA0029E7D4B0
:10577000169B4FEA202E9E45E2DAC4B25FFA81FB07
:105780006FF0FF0101EB4403802C4FF0010501EBAA
:105790004B014FF0FE0038BFA0EB4403149338BF19
:1057A0004FF0FF35BBF1800F38BFA0EB4B011391D9
:1057B00012994FF0010902FB01E038BF4FF0FF39A9
:1057C000119B159E02FB01FC00FB063309EB020056
:1057D00050451CDA169905EB0E0A8A4517DA5AEA83
:1057E000000114D4159905FB013A0A9901FB09320D
:1057F0000F99D1B12799142968D0062975D00529A8
:1058000040F08C809C7896789AF8025089E027992D
:105810001888259D142925F8180014D0062917D0BA
:1058200005290CBF9978FF2118E01988BAF800A063
:105830001288DDF89890DDE92365DDE920CBFF20B3
:1058400009F80800A2E00198604410F80E1005E085
:10585000099980B2091A18BF4FF0FF310020DDF816
:1058600040A0802C38BF01200B9BBEFA8EF56D093D
:10587000BEEB0306DDF89890DDF880C005EA000570
:1058800018BF01263043854212D00020BBF1800FA3
:1058900038BF0120029EB2FA82F35B09921B03EA31
:1058A000000318BF01221043834204D0002008E007
:1058B000C8B2149901E0C8B21399C1F1FF0148437D
:1058C000000ADDE92365DDE921B43AE7019E06EB34
:1058D0000C0101EB0E0C11F80E4012991CF805504A
:1058E00000FB016010F80E601BE018880999DDF8D4
:1058F00084B0814208D010880999814204D0BAF856
:1059000000000999814209D1DDF89890DDE923650D
:10591000DDF880C0002009F8080032E0FF24FF26EF
:10592000FF25DDF89890DDF880C0A64207D01399D6
:10593000C1F58070604301FB0600C0F30726DDF867
:1059400084B0A54207D01499C1F58070604301FB73
:105950000500C0F30725A91900204E08B0EB510F30
:1059600009F808600BD019881288BAF800A0DDE9A0
:105970002365012050B9CDE90CA20E9148E0DDE984
:1059800023650E99DDE90CA20028F4D08CB290B208
:1059900084420E9109D11FFA8AF0844205D12598DC
:1059A000CDE90CA220F8181032E003994FF6FF70F1
:1059B000049B21EA000001191398C2EA0303C2B252
:1059C00018460493039110F01BFD5146824605983A
:1059D000149AC1EA00000699D2B26FF30F01214474
:1059E000CDE9050110F00CFD014607980C91C1EAC4
:1059F000000008997F22CAEA0101CDF834A0CDE960
:105A0000070110F0FDFC2599DDF880C021F8180091
:105A1000DDF840A0229C96E617B0BDE8F08F0000AC
:105A20002DE9F04F81B0DDF838C00093BCF1010FD3
:105A300037DBDDF840E0DDE90CB4DDF828A0002517
:105A4000002706E0002601370EF805603DB26545E7
:105A500027DA05FB0BF30AEB2328B8F1000FF1D48A
:105A60000B9E05FB04F306EB23234FEA2329914504
:105A70004FF00006E7DA002BE5D44FEA28238B42EB
:105A8000E1DA009E09FB063303EB4303C65A00EB41
:105A9000030823460F9C24F8156098F802601C4602
:105AA000D1E701B0BDE8F08FB0B592B00546808F68
:105AB00010B301AC20460DF0DDFC204629460DF068
:105AC0002BFE48F6E551C0F6020120460DF06EFDB2
:105AD000A98F20460DF0E4FD2046002101220DF0A3
