:020000040800F2
:100000002882002049020008B12300088D1A000848
:10001000AD23000865060008F52C0008000000006C
:10002000000000000000000000000000E1260008C1
:100030002507000800000000E1230008152700083C
:1000400063020008630200086302000863020008FC
:1000500063020008630200086302000863020008EC
:1000600063020008630200086302000863020008DC
:1000700063020008630200086302000889060008A2
:100080006302000863020008630200080000000029
:1000900000000000000000000000000063020008F3
:1000A000630200086302000863020008630200089C
:1000B000630200086302000863020008630200088C
:1000C000630200086302000863020008630200087C
:1000D000E523000863020008630200080000000036
:1000E00063020008630200086302000800000000C9
:1000F0000000000000000000000000006302000893
:1001000000000000630200086302000863020008A8
:1001100000000000000000000000000000000000DF
:10012000630200086302000863020008630200081B
:100130006302000800000000000000000000000052
:100140000000000000000000000000006302000842
:1001500063020008630200086302000863020008EB
:1001600063020008630200080000000000000000B5
:10017000000000000000000000000000000000007F
:100180000000000063020008000000000000000002
:10019000630200086302000800F002F800F044F86F
:1001A0000AA090E8000C82448344AAF10107DA45D2
:1001B00001D100F039F8AFF2090EBAE80F0013F0E0
:1001C000010F18BFFB1A43F001031847686B0000CA
:1001D000886B0000103A24BF78C878C1FAD852075B
:1001E00024BF30C830C144BF04680C6070470000B1
:1001F0000023002400250026103A28BF78C1FBD830
:10020000520728BF30C148BF0B607047642900F017
:100210000181752900F0FE80002070471FB502F0B3
:100220002AFF1FBD10B510BD00F0E1F91146FFF720
:10023000F5FF02F06DFE00F0FFF903B4FFF7F2FFE7
:1002400003BC00F007FA000009488047094800474E
:10025000FEE7FEE7FEE7FEE7FEE7FEE7FEE7FEE776
:10026000FEE7FEE704480549054A064B70470000D3
:10027000C127000899010008285200202882002088
:10028000286200202862002053EA020C00F06980F6
:100290002DE9F04B4FF00006002B1FBFB3FA83F59A
:1002A00003FA05F424FA05F65E4012BF1643B2FACB
:1002B00082F502FA05F4C5F120051EBF22FA05FCFD
:1002C00044EA0C04203556EA044C4FEA144418BFA3
:1002D000641C4FF000084FF00009904271EB030CD2
:1002E00039D3002919BFB1FA81F701FA07F6B0FA3C
:1002F00080F700FA07F6C7F120071EBF20FA07FCB7
:1003000046EA0C062037B6FBF4FCA7EB0507103FC6
:1003100007F01F0BCBF120062CFA06F60CFA0BFBAC
:1003200044BFB3460026202FA4BF5E464FF0000B0B
:100330005BEA060C08BF4FF0010B19EB0B0948EB09
:100340000608ABFB027C06FB02CC0BFB03CCC01BFC
:1003500071EB0C01C1E70B46024641464846BDE839
:10036000F08B13B5084318BF4FF0FF300146AFF3D1
:100370000080BDE81C4070470FB41CB50C0007AAF4
:10038000009001D02044401E074B7B4469460190F9
:10039000069800F00CF9002C03D06946002000F00C
:1003A00019F91CBC5DF814FB510200002DE9F04165
:1003B0000E460446002020622046E168884730B39C
:1003C000252805D0D4E901219047206A401CF2E796
:1003D000E168204600278847050018D0A5F14100B4
:1003E000192802D820354FF40067324629462046A6
:1003F0002760FFF70BFF40B1012804D0F61D26F05F
:1004000007060836D8E7361DD6E72846DAE7206A19
:10041000BDE8F0812DE9F0410646002410687529F9
:10042000314616A510D0AFF30080002802DA404212
:1004300013A507E031688A0701D512A502E0490734
:1004400004D511A5012401E0AFF3008000210A22A8
:1004500006F1240709E0B0FBF2FCB0FBF2F302FB6B
:100460001C00303078541846491C0028F3D123462C
:100470002A463046BDE8F04100F03AB800000000DE
:100480002D0000002B0000002000000002F0FF0300
:1004900043EA032242EA024200F002B84FF00002AF
:1004A00000B5134694469646203922BFA0E80C506A
:1004B000A0E80C50B1F12001BFF4F7AF090728BF45
:1004C000A0E80C5048BF0CC05DF804EB890028BFC1
:1004D00040F8042B08BF704748BF20F8022B11F0EA
:1004E000804F18BF00F8012B704770477047704766
:1004F0002DE9F0470D4699469246044600F124083E
:100500000168880604D5E06921F01001216000E04F
:100510000120A84201DD471B00E00027A1697A19EC
:1005200002EB0900081AA0612078C00602D4204618
:10053000AFF30080002608E0D4E901211AF8060094
:100540009047206A401C761C20624E45F4DB2078E0
:10055000C0060AD52046AFF3008006E0D4E90121A9
:1005600030209047206A401C2062381EA7F1010706
:10057000F4DC07E0D4E9012118F805009047206A6F
:10058000401C2062281EA5F10105F3DC2046AFF3D4
:1005900000802078000602D50220BDE8F087012007
:1005A000FBE7000001694A1C02610878704700B54A
:1005B0008FB0CDE901310021059105497944CDE99C
:1005C000031011466846FFF7F1FE0FB000BD0000B2
:1005D000E5FFFFFF0A6802F8010B0A607047D1E9E6
:1005E00000239A4202D2531C0B601070704775466C
:1005F00000F02CF8AE4605006946534620F007008F
:10060000854618B020B5FFF72DFEBDE820404FF01D
:1006100000064FF000074FF000084FF0000BAC460B
:10062000ACE8C009ACE8C009ACE8C009ACE8C00956
:1006300021F007018D46704710B50446AFF30080E6
:100640002046BDE81040FFF7F8BD000000487047A5
:100650002000002001491820ABBEFEE72600020062
:1006600070470000FEE7000080B540F20000C2F2D3
:100670000000027840F28000C2F200004FF4A04176
:10068000FFF704FF80BD000080B545F2A800C2F26C
:10069000000000F093F880BDD0F800C06FF00F02AA
:1006A0004AF6AB2352FA8CF2CAF6AA230146A2FB01
:1006B0000330000905A31B5C40F2FF302CEA000068
:1006C0005F2A88BF0430C1E9160370470006101680
:1006D000000610168269816AB2F5005F06D06AB919
:1006E000022912D0012914D0D1B90EE0032917D85C
:1006F000DFE801F0020B020F0120704703293CBF25
:10070000012070471CBF00207047C06AC0F3006022
:100710007047C06AA0F1C070B0FA80F0400970471D
:100720000020704770470000EFF3108072B600BFE2
:10073000FEE70000A0F1EE02112A4FF000010FD8F1
:100740000FF20400DFE802F0091414141414141456
:1007500014141614141414141A1E48F2304107E02D
:100760001F2815D07E2802BF4FF4FC6188B2704765
:1007700088B270474FF4784188B270474FF6E07105
:1007800088B270476FF01F0000F11F0188B27047F8
:100790001F2188B27047000090F83510022909D156
:1007A000052180F835100068016821F00101016021
:1007B000002070478021416501207047F0B581B06D
:1007C00004460020009040F20800C2F200000268D7
:1007D000D4E9166048F2B51337680821C1F64E33E4
:1007E00081403942A2FB03250CD0226813685B07C5
:1007F00008D5136823F004031360B160616D41F004
:100800000101616501218140394208D022685269A5
:10081000120604D5B160616D41F0020161650421E9
:100820008140394208D022681268920704D5B1602D
:10083000616D41F00401616510218140394215D09C
:1008400020680268120711D5B1600268016852037E
:1008500006D4C90506D4016821F00801016001E051
:10086000080342D4216C09B120468847E16D20205D
:1008700000FA01F23A4244D020680368DB0640D512
:10088000B26094F835300268052B1ED122F01602B2
:100890000260426922F080024261226C0AB9A26CB5
:1008A0001AB1026822F0080202603F208840B0605E
:1008B000012084F83500216D0020002984F83400DF
:1008C00040D02046884701B0F0BD0168520310D4E3
:1008D000C90512D4016821F010010160012084F8DB
:1008E0003500002084F8340007E0A16C0029BBD15A
:1008F000BCE7080301D4616C00E0E16B09B120465C
:100900008847606DF0B1606DC00717D0052084F88E
:1009100035002068A90A026822F00102026000BFC7
:10092000009A01328A42009202D80268D207F7D1B7
:10093000012084F83500002084F83400E16C09B10E
:100940002046884701B0F0BD2DE9F041044600F093
:1009500045F9C4B10546022084F83500002021681D
:1009600084F83400086820F00100086026683068C8
:10097000C0070BD000F032F9401B0528F6D903213F
:100980002022032042E00120BDE8F081306848F2D7
:100990003F01CFF21001251D00EA010C2ECDD4E954
:1009A000050E41EA0C01114319432943D4E90778A4
:1009B000084340EA0E01606A3943042841EA08010D
:1009C00003D1D4E90B231143194331607169042821
:1009D00021F0070141EA00050CD1D4E90A1045EAEB
:1009E000010538B12046FFF775FE18B101214022FC
:1009F00001200BE020467561FFF74EFEE16D3F22BE
:100A000002FA01F18160002201210020626584F870
:100A10003510BDE8F0810000B0B5044600F0DEF806
:100A2000054640F21800C2F200000078611C18BFB1
:100A3000044400BF00F0D2F8401BA042FAD3B0BD7E
:100A40002DE9F04F83B000F13E4202F1FF724FEA10
:100A5000B22241F200070192C4F2020707224FF0CE
:100A6000010E00254FF0000A4FF00008B84208BF01
:100A7000042200920AE000BF08F101080AF1040A0A
:100A8000B8F1100F05F1020500F0A4800C680EFA11
:100A900008FB14EA0B09EFD04C6804F0030CACF12E
:100AA000010EBEF1010F11D80322876802FA05F684
:100AB000CA68B743AA403A4382604268C4F3001749
:100AC00022EA0B0207FA08F73A434260BCF1030F2F
:100AD0001CD0C26803238E6803FA05F7BA4306FAEE
:100AE00005F73A43BCF1020FC2600FD16FF0030269
:100AF00002EA580202440AF01C060F23176A03FA9E
:100B000006F40B69A743B3403B4313620268032317
:100B10004F68AB409A4307F00303AB401A4317F406
:100B2000403F4FF0010E0260A6D0002243F644037E
:100B30000292C4F202031A6843F6004442F480426F
:100B40001A601A68C4F2010402F480420292029A06
:100B500028F003024FF6084B2244CFF6FF7B52F8F1
:100B60000B300AF00C070F26BE4023EA060C019B4F
:100B7000009E042B38BF1E4606FA07F747EA0C030F
:100B800042F80B30A2684B6842EA090743F60C4C66
:100B9000DE0258BF22EA0907A760C4F2010CDCF8A4
:100BA00000209E0242EA090758BF22EA0907CCF852
:100BB000007062689E0342EA090758BF22EA0907EB
:100BC00067602268DB0342EA090358BF22EA09038F
:100BD000236051E703B0BDE8F08F000045F2142018
:100BE000C2F2000000687047F0B581B0B0B30446AF
:100BF00090F83D0028B9002084F83C00204600F021
:100C0000BFF8242084F83D002068016821F001012C
:100C10000160016841F400410160016821F4004174
:100C2000016000F023FA48F28041C0F21E0140F654
:100C30000012656888424FF00001C0F23D0248F2A0
:100C4000A16C4FF0000338BF01219042C0F2010CAB
:100C500038BF0123654538BF0B4613B1012001B0F1
:100C6000F0BD4DF68361C4F21B31A0FB0112216877
:100C70004FEA924E4B684FF4967623F03F0343EAD7
:100C800092434B6044F6D3530F6A0EFB06F6C1F253
:100C90006203A6FB033627F03F03B709654538BF5B
:100CA000970C7A1C1A430A62CA6948F2A0674CF68C
:100CB000FF73C0F20107BD4222EA030C0AD80138D3
:100CC0006A00B0FBF2F001306FF31F30042898BFC8
:100CD00004202BE0A368A0F1010E9BB1192068430A
:100CE000BEFBF0F00422013062F31F30000512D089
:100CF0009BB119206843BEFBF0F00422013062F37F
:100D00001F3011E005EB4500BEFBF0F001306FF342
:100D10001F300005ECD1012008E005EB4500BEFBCB
:100D2000F0F001306FF31F3040F4004040EA0C0057
:100D3000C8610868D4E9072320F0C00010431843B5
:100D40000860886848F2FF3204F10C0790438CCFAA
:100D500018431043A6698860C86820F0FF00384334
:100D60003043C860086840F001000860002020217E
:100D7000206484F83D10206384F83E0001B0F0BD8B
:100D8000B0B586B045F200410068C4F2000100240D
:100D900088420594CDE903440294019401D006B041
:100DA000B0BD43F630050094C4F20205286840F057
:100DB00002002860286800F0020000900098C0201F
:100DC00001901220CDE90204032004900420059034
:100DD00001F5D83001A9FFF733FE0094286940F4EB
:100DE00000102861286900F400100090009806B0F7
:100DF000B0BD000040F2180045F21421C2F200001C
:100E0000C2F2000100780A681044086070470000D0
:100E100080B543F60040C4F20200016841F400715D
:100E20000160016841F480610160016841F48071F2
:100E30000160032000F060F80F2000F005F800F0DA
:100E40002BF8002080BD0000B0B540F21802C2F2BD
:100E5000000240F208011278C2F200014FF47A73E6
:100E60000968B3FBF2F20446B1FBF2F1084600F068
:100E700009FE0F2C4FF001050CD858B94FF0FF3088
:100E800021460022002500F027F840F21C00C2F2A3
:100E9000000004602846B0BD82B0002043F6400147
:100EA0000190C4F202014A6842F480424A604A68F2
:100EB00002F480420192019A0090086840F080504C
:100EC0000860086800F080500090009802B07047F9
:100ED00080B501F025FF80BD70B514460D4606466D
:100EE00001F02EFF2946224601F064FA0146304601
:100EF00001F02EFF70BD000080B501F03BFF80BD0A
:100F00002DE9F041002800F08B8043F60808C4F278
:100F100002080446D8F8F8030D4600F0070088429E
:100F200007D288F8F853D8F8F80300F00700A84271
:100F300076D12068810717D5410705D5D8F800106C
:100F400041F4E051C8F80010010705D5D8F80010A9
:100F500041F46041C8F80010D8F80010A26821F0F0
:100F6000F0011143C8F80010C0073FD1D8F8F803CA
:100F700000F00700A84207D988F8F853D8F8F8031A
:100F800000F00700A8424BD12068410707D5D8F8E8
:100F90000010E26821F4E0511143C8F80010000786
:100FA00008D5D8F80000216920F4604040EAC1006B
:100FB000C8F8000000F06CF8D8F8001043F2900276
:100FC000C1F30311C0F60002515C40F2080220FA9E
:100FD00001F140F21C00C2F200000068C2F20002FF
:100FE0001160FFF731FF0020BDE8F0816068811ECD
:100FF000022907D258F8081C89015CBF0120BDE80E
:10100000F08110E0012807D158F8081C89035CBF63
:101010000120BDE8F08106E058F8081C890702D4D9
:101020000120BDE8F081D8F8001021F00301084349
:10103000C8F80000FFF7D2FD064641F2883700BF2E
:10104000D8F80000616800F00C00B0EB810F8DD083
:10105000FFF7C4FD801BB842F2D90320BDE8F08140
:1010600040F20800C2F200000068704780B5FFF748
:10107000F7FF43F60801C4F20201096843F2A00237
:10108000C1F38221C0F60002515CC84080BD00005F
:1010900010B543F60404C4F20204606800F00C00CA
:1010A00008280AD0042819BF42F20040C0F2F40018
:1010B00047F64000C0F27D1010BD2068216823680B
:1010C000490247F64001C0F27D1100F03F02C3F330
:1010D00088105CBF42F20041C0F2F401A1FB0001A4
:1010E0000023FFF7D1F821680222C1F3014102EB8E
:1010F0004101B0FBF1F010BD2DE9F04182B00028B4
:1011000000F0A2800446007843F60006C007C4F24F
:10111000020643D0B06800F00C00042805D1306806
:1011200080033BD56068C8BB8EE0B06800F00C005F
:10113000082802D170684002F1D46568B5F5A02F87
:101140000AD0B5F5803F0BD0306820F48030306095
:10115000306820F4802006E0306840F48020306061
:10116000306840F480303060FFF738FD002D0546D0
:1011700011D000BF3068800310D4FFF72FFD401B53
:101180006428F7D922E100BFFFF728FD401B64283F
:101190004FF0030055D830688003F5D420788007DD
:1011A0001AD5B06810F00C0F09D0B06800F00C0030
:1011B000082840F08A807068400200F1868030681C
:1011C000800702D5E06801283ED13068216920F00F
:1011D000F80040EAC10030602078000738D4207859
:1011E00040074CD4A5695DB3B06800F00C00082836
:1011F00040F09E80012D27D07068E16900F48002E4
:101200008A4221D1216A00F03F028A421CD147F66E
:10121000C071626A0140B1EB821F15D1A26A00233E
:10122000CFF6FF7303EBC23200F440316FF30F02CD
:10123000914209D1E16A00F07060B0EB016F03D117
:10124000002002B0BDE8F081012002B0BDE8F081CD
:101250006069002840F20000C4F2472057D0012105
:10126000C0F8801EFFF7BAFC054600BF706F80070C
:10127000B5D4FFF7B3FC401B0228F7D9A6E0306CC9
:1012800010F080580AD100200190306C40F080505E
:101290003064306C00F080500190019847F20007F4
:1012A000C4F200073868C00524D4386840F4807060
:1012B0003860FFF793FC05463868C0051AD4FFF77D
:1012C0008DFC401B0228F7D980E0E068002851D04F
:1012D0000020C4F2472001210160FFF77FFC054692
:1012E000306880073FF571AFFFF778FC401B02289C
:1012F000F6D96BE0A568052D50D0012D52D0306F86
:1013000020F001003067306F20F004004DE0002134
:10131000C0F8801EFFF762FC054600BF706F8007B3
:101320007FF55DAFFFF75AFC401B0228F6D94DE070
:101330000027C4F2472700203866FFF74FFC022D34
:1013400005460BD13068800158D5FFF747FC401B9C
:1013500002284FF00300F5D973E700BF3068800121
:101360007FF56EAFFFF73AFC401B02284FF00300F9
:10137000F4D966E70020C4F2472000210160FFF79E
:101380002DFC0546306880077FF526AFFFF726FC69
:10139000401B02284FF00300F4D952E7306F40F0B1
:1013A00004003067306F40F001003067FFF716FC33
:1013B000002D054641F2883714D000BF306F8007FA
:1013C00013D4FFF70BFC401BB842F7D9032002B03F
:1013D000BDE8F081FFF702FC401BB8424FF003006C
:1013E0003FF62FAF306F8007F4D4B8F1000F7FF4D1
:1013F000F9AE306C20F080503064F3E604F11C0547
:101400002FCD08430021CFF6FF7140EA821001EB97
:10141000C3316FF30F0140EA05600843706001209B
:101420003866FFF7DBFB0446306880013FF508AF04
:10143000FFF7D4FB001B02284FF00300F4D900E7AC
:1014400070470000B0B582B0044600684168826809
:101450004B0602F0400305D512F0010502D00BB98E
:10146000216C05E00D0607D512F0020504D0616C71
:101470002046884702B0B0BD8D0664D512F4B07521
:1014800061D0BBB194F85130032B08D100210191F8
:10149000C168019180680190019802B0B0BD636D90
:1014A00043F00403636500230193C36801938368D9
:1014B0000193019B12F0200302F480720CD0636D43
:1014C00043F001036365002301938368019303687C
:1014D00023F040030360019B42B1626D42F00802B9
:1014E00062650022019282680192019A626D52B394
:1014F0004268890722F0E00242604FF0010284F85E
:1015000051201DD0416842F2F53521F003014160C0
:10151000E06CC0F6000538B10565FFF73DF918B17C
:10152000606D40F040006065A06C60B10565FFF73C
:1015300033F940B1606D40F04000606502B0B0BD6D
:101540002046FFF77DFF02B0B0BD000070B538B196
:101550000446406A30B10020206104F1140007E025
:10156000012070BD6068B0F5827F03D004F11C00DB
:10157000002101600026A66294F8510020B920469F
:1015800084F8506000F03CF8022084F8510094E8A0
:101590000F0001F48271056802F4044225F0400551
:1015A0000560114403F400622369114403F0020250
:1015B0006369114403F00102A369E569114403F46E
:1015C0000072114405F03802256A114405F08002CA
:1015D000A56A114305F4005211430160626A0421B7
:1015E00001EA134102F0100211444160C16921F483
:1015F0000061C1610120666584F85100304670BD0C
:1016000070B586B00446006843F60001C4F20001DC
:1016100000268842CDE90466CDE9026601962FD006
:1016200043F20001C4F20101884279D1002043F65F
:1016300030010090C4F202014A6942F480524A61CA
:101640004A6902F480520092009A00900A6842F0BF
:1016500001020A60096801F0010100910099E0218E
:1016600001910221CDE9021003200490052005908C
:101670000020C4F2020001A9FFF7E2F906B070BD34
:1016800043F630050096C4F20205286901A940F42A
:1016900080402861286900F48040009000980096FE
:1016A000286840F002002860286800F002000090DE
:1016B00000984FF4044001900220CDE90206032077
:1016C0000490052005900020C4F2020000F580601F
:1016D000FFF7B6F905F5215045F2A805C2F200055D
:1016E000C5E900064FF4003040214FF48062C5E99F
:1016F00008062846C5E90216C5E90426C5E90666B6
:10170000FFF722F9002818BFFFF70EF82420002168
:101710000022A564AC63FFF7DFFB2420FFF7D8FBB2
:1017200006B070BD2DE9F04381B0044690F850003A
:10173000012803D1022001B0BDE8F0834FF0010978
:101740001D4616460F4684F85090FFF747FA94F866
:10175000511001295DD18046002F4FF0010018BFC4
:10176000002E00F09580032084F851000020606571
:101770002763A686E686A063A087E087A168C4E900
:101780001000B1F5004F08D12068016821F0400138
:101790000160016841F480410160206801684906E8
:1017A00003D4016841F0400101606168731EE26882
:1017B000B1FA81F1B3FA83F349095B09B2F5006F1D
:1017C00041EA030127D139B1216B0988C160B81CF6
:1017D0002063E08E0138E086E08E002841D06E1C48
:1017E0000AE000BF216B31F8022BC2602163E08E5A
:1017F0000138E086E08EA0B3206881688907F1D4C3
:10180000FFF7ECF9002EF5D0A0EB0800A842F1D3C9
:1018100025E002203CE039B139780173206B0130BA
:101820002063E08E0138E086E08ED0B16E1C0AE0C5
:10183000216B09780173206B01302063E08E013841
:10184000E086E08E68B1206881688907F0D4FFF7F0
:10185000C5F9002EF5D0A0EB0800A842F1D3032073
:1018600016E020462946424600F0CCFD00281CBF69
:1018700020206065A06838B9002000902068C16809
:101880000091806800900098606D002818BF0120CA
:10189000002184F8519084F8501001B0BDE8F08325
:1018A0002DE9F04381B0044690F85000012803D19F
:1018B000022001B0BDE8F08301201E4615460F4608
:1018C00084F85000FFF78AF994F8511081460129F5
:1018D0000CD06068B0F5827F76D104294FF0020009
:1018E00040F0C680A168002940F0C280002F4FF070
:1018F000010018BF002D00F0BB80002E00F0B88062
:1019000094F85100002104281CBF052084F85100E0
:101910006165A563E687A6872763E6862068A686B5
:10192000216461640168490603D4016841F0400103
:1019300001606168731EE268B1FA81F1B3FA83F362
:10194000DDF8208049095B09B2F5006F41EA030127
:101950003CD139B1216B0988C160B81C2063E08E8D
:101960000138E086012608F1010500BFE08E10B9BC
:10197000E08F002866D02068816889070CD5E18E49
:10198000012E09D141B1216B002631F8022BC26032
:101990002163E18E0139E1868168C9070AD0E18FB0
:1019A00041B1C068A16B012621F8020BA163E08F51
:1019B0000138E087FFF712F9002DD7D0A0EB09001E
:1019C0004045D3D3032053E0022051E039B13978A8
:1019D0000173206B01302063E08E0138E086012620
:1019E00008F10105E08E08B9E08F58B320688168DE
:1019F00089070DD5E18E012E0AD149B1216B002650
:101A000009780173206B01302063E08E0138E08695
:101A100020688168C9070BD0E18F49B1C068A16B0C
:101A200001260870A06B0130A063E08F0138E087C9
:101A3000FFF7D4F8002DD5D0A0EB09004045D1D355
:101A4000032015E0204641464A4600F0DBFC18B171
:101A50002020606501200BE0A06800284FF0000006
:101A600006D100902168CA680092896800910099A7
:101A7000012184F85110002184F8501001B0BDE814
:101A8000F083000080B500F02DFE80BDFEE7000071
:101A90002DE9F04F85B0CDE9020100F083FA40F264
:101AA000140A46F60A574FF00008C2F2000A4FF037
:101AB000FF3BC0F6000704AE00244FF0000900BF52
:101AC00001F086F9D0B3DAF8000046F60951C0F605
:101AD000000101224FF0FF3308F10105FFF722FE5C
:101AE000DAF8000039460DF112020223CDF800B0F9
:101AF000FFF7D6FEDAF8000046F60851C0F60001FE
:101B000001224FF0FF33FFF70DFEDAF800003946EF
:101B100032460223CDF800B0FFF7C2FEBDF8100038
:101B2000BDF81210000400BA8144080400BA04444D
:101B3000B8F1090FA846C3D34FF00A0800F06AFABB
:101B4000B8F10A0F03D2002005B0BDE8F08F4CF6C3
:101B5000CD40CCF6CC40A9FB0012A4FB0001D0087C
:101B600040F2DC53984288BFD30847F6181045F27C
:101B70008062834228BF034603EB8300CFF6FC72EA
:101B800002EB401040F22772C8F62E62A0FB020260
:101B9000C80843F698218C4238BF40F6CC4047F243
:101BA0009E51884228BF084649F60021CFF6F971B8
:101BB00001EBC0104CF255714008C1F28931A0FB15
:101BC0000101029B900B188045F2A000C2F20000B8
:101BD0000078039A890A012811801FD145F29801E3
:101BE000C2F200011888B1F9001090FBF1F045F243
:101BF0009C01C2F200010988084445F29A0118804C
:101C0000C2F200011088B1F9001090FBF1F045F22A
:101C10009E01C2F20001098808441080012005B02D
:101C2000BDE8F08F2DE9F04F87B00690A0284FF067
:101C3000000098BF802902D907B0BDE8F08F202AA4
:101C400003D10A2007B0BDE8F08F03D2002007B00F
:101C5000BDE8F08F40F20400C2F200000068837813
:101C6000002B00F0AC800778A2F120000191C0B2F7
:101C700003FB07F145F29009FC0001FB00F200268E
:101C8000C2F200094FF000080020CDE9027308E01D
:101C9000049E0399029F059A01368E423A4400F051
:101CA0009080002FCDE90462F2D001994FF0000B33
:101CB00006EB010A174608E040450BF1080B88BF08
:101CC00080465C4507F10107E2D040F20401C2F210
:101CD00000010968CD5D2906069901EB0B060FD4BA
:101CE000690618D4A90622D4E9062CD4290736D4CB
:101CF000690740D4A9074AD4E907DDD054E000BF02
:101D0000B9F80020B0B21FFA8AF101F09DF80BF18A
:101D100001006906E6D5B9F80020701C1FFA8AF1A7
:101D200080B201F091F80BF10200A906DCD5B9F8F8
:101D30000020B01C1FFA8AF180B201F085F80BF187
:101D40000300E906D2D5B9F80020F01C1FFA8AF189
:101D500080B201F079F80BF104002907C8D5B9F871
:101D60000020301D1FFA8AF180B201F06DF80BF1EE
:101D700005006907BED5B9F80020701D1FFA8AF169
:101D800080B201F061F80BF10600A907B4D5B9F8EB
:101D90000020B01D1FFA8AF180B201F055F80BF156
:101DA0000700E9073FF488AFB9F80020F01D1FFADB
:101DB0008AF180B201F048F80BF108007CE74FF09F
:101DC000000808EBD800013007B0BDE8F08F000034
:101DD000F0B581B00546040A002000219F227F2330
:101DE000002601F001F92C2000F086FFEDB244F648
:101DF000FF7700BF204600F089FF284600F086FFED
:101E0000BE4206F10106F5D3002000F075FF01B0D7
:101E1000F0BD000070B5002000219F227F2301F05B
:101E2000E3F82C2000F068FF40F28000C2F20000CE
:101E3000451E4FF4A04600BF15F8010FFEF77AFCCF
:101E40000446000A00F062FFE0B200F05FFF013ECE
:101E5000F2D1002000F050FF70BD0000F0B581B05D
:101E60001378F3B140F204070C460546561CC2F243
:101E700000070DE0A0B27F2884BF00250024A8B28F
:101E8000A1B2DAB2FFF7CEFE16F8013B054443B12A
:101E9000A8B2A028EED33868002580782044441EDC
:101EA000E8E701B0F0BD000081B043F63001C4F2B4
:101EB00002010A6802430A6009680840009000981D
:101EC00001B0704781B043F64400C4F202000168DB
:101ED00041F480310160006800F480300090009887
:101EE00001B070472DE9F0410C46096891FAA1F262
:101EF000B2FA82F731FA07F235D005464FF0010801
:101F00000EE062692846314600F064F862682846AF
:101F1000314600F085F82168013731FA07F022D008
:101F200008FA07F011EA0006F5D0606801380128C8
:101F300009D8A2682846314600F098F8E268284699
:101F4000314600F07DF822692846314600F07EF8DF
:101F500060680228DAD13006D3D06269284631465B
:101F600000F028F8D2E70020BDE8F08140F21040F0
:101F7000C4F202000068C0F34000704740F218400D
:101F8000C4F202004FF480210160704709048161AE
:101F90007047000040F218410004C4F202010860DA
:101FA000704700001820C4F202004FF48031016035
:101FB0007047000091FAA1F1B1FA81F1D0F820C088
:101FC00089000F238B402CEA030302FA01F1194325
:101FD00001627047090A91FAA1F1B1FA81F1D0F8D2
:101FE00024C089000F238B402CEA030302FA01F17D
:101FF000194341627047000040F21840C4F20200E9
:102000004FF480510160704740F21841C4F2020160
:10201000086070471820C4F2020001210160704777
:1020200091FAA1F1B1FA81F1D0F800C0490003237F
:102030008B402CEA030302FA01F119430160704757
:1020400043688B43514319434160704791FAA1F1B2
:10205000B1FA81F1D0F80CC0490003238B402CEA7F
:10206000030302FA01F11943C160704791FAA1F12B
:10207000B1FA81F1D0F808C0490003238B402CEA63
:10208000030302FA01F11943816070476FF0010107
:1020900001617047016821F0800101607047000014
:1020A000016821F00101016070470000016841F002
:1020B0000101016070470000416941F00101416187
:1020C0007047000070B50D4640F2FF71044600688D
:1020D000C4F2000100268C42C4F201060ADD40F67B
:1020E0000002C4F2000294420DD0B4420BD040F67C
:1020F000004204E0B4F1804F05D040F20042C4F247
:102100000002944203D16A6820F0700010434FF639
:10211000FF72C4F20002944209DC8C4212DCB4F17A
:10212000804F26D040F20041C4F200011FE044F28B
:10213000FF31C4F201018C420FDCB44219D044F2E9
:10214000000112E040F60001C4F200018C4210D000
:1021500040F60041C4F2000109E044F60001C4F277
:1021600001018C4205D044F20041C4F201018C42CD
:1021700003D1E96820F4407008432060A968204634
:1021800000F014F82988204600F01CF8B44202D16F
:10219000286900F019F82046FFF78EFF002070BD77
:1021A000006900F001007047C1627047C16270476A
:1021B000816844F2070291438160704700214162C7
:1021C00070470000816270473021C4F2010108604D
:1021D0007047000080B582B00020019043F63000C7
:1021E000C4F202000168002241F40011016000689D
:1021F000002100F40010019001980F20FEF76CFE02
:102200000F20FEF765FE02B080BD00002DE9F0470B
:1022100086B000278020CDE90477CDE90277CDE9AB
:102220000077FFF741FE01204FF00108FFF73CFE69
:1022300002204FF00209FFF737FE40F20044C4F2DB
:102240000204A4F5806528460121FFF79FFE204681
:1022500041F23C0141F23C0AFFF798FE6E462846E7
:102260003146CDE90088CDE902770497FFF73AFEC1
:1022700020463146CDE90097CDF81080FFF732FEB9
:1022800020463146CDE900A8CDE902770497FFF753
:1022900029FE06B0BDE8F08780B545F2081045F28A
:1022A0000041C2F20000C4F2000141F68022002386
:1022B0004FF4804CC0F2060280E80E00C0E9033CF7
:1022C000C0E90533C0E90733FEF78EFC002818BFCC
:1022D000FEF72AFA80BD000080B545F25C1043F29B
:1022E0000001C2F20000C4F201014FF48272002327
:1022F00080E80E0000F114014FF4007C4FF0300E26
:1023000081E808500A21C0E90333C0E90833C0E975
:102310000A31FFF71BF9002818BFFEF705FA80BD48
:1023200080B545F2B41043F60001C2F20000C4F2D9
:1023300000014FF48272002380E80E0000F11401C6
:102340004FF4007C4FF0080E81E808500A21C0E9E4
:102350000333C0E90833C0E90A31FFF7F7F8002872
:1023600018BFFEF7E1F980BD10B586B000240594D2
:10237000CDE90344CDE90144FFF7A4FD4FF6FF701A
:10238000ADF804400294CDE9030444F20004C4F221
:10239000010401A92046FFF795FE2046FFF77AFECB
:1023A0002046FFF705FF06B010BD0000FEE7000065
:1023B000FEE7000000F0070080F00703042B28BFB1
:1023C00004234FF0FF3C03380CFA03F338BF00201E
:1023D000994381400CFA00F022EA0000084370475C
:1023E0007047000080B545F2B410C2F20000FFF75C
:1023F00029F880BD80B5806B0021C187C186FFF7B9
:102400001FF880BD10B582B040F20803C2F200038D
:102410001B6849F68174C1F25E64A3FB043C044668
:102420004FEA5C504FF47A73584301906068B0F5FE
:10243000827F0DD113460A462046802100F014F811
:1024400078B1606D40F020006065032002B010BDDF
:10245000019830B101980138019020688068000629
:10246000F6D4002002B010BD2DE9F04381B01E4625
:1024700090460D468146FEF7B1FB301A00EB080787
:10248000FEF7ACFB40F20801C2F200010968C1F39B
:10249000CB3179430091D9F8001089682940A942CD
:1024A00019D1064608F1010406E000BFD9F8000082
:1024B00080682840A8420ED1002CF7D0FEF78EFB92
:1024C000801BB8420BD200980099002808BF07462D
:1024D000481E0090EAE7002001B0BDE8F083D9E98A
:1024E00000014268B1F5827F22F0E00242600BD128
:1024F000D9F80810B1F5004F02D0B1F5806F03D1C3
:10250000016821F040010160D9F82810B1F5005FA1
:1025100007D1016821F400510160016841F40051C4
:102520000160012089F85100002089F85000032043
:1025300001B0BDE8F083000080B5112000F0DCFBA5
:1025400041F2883000F026FC262000F0D5FB042064
:1025500000F0DCFBB12000F0CFFB0B2000F0D6FB3D
:10256000142000F0D3FBC02000F0C6FB082000F0D0
:10257000CDFB052000F0CAFBC12000F0BDFB02200E
:1025800000F0C4FBC52000F0B7FB442000F0BEFB08
:10259000482000F0BBFBC72000F0AEFBC22000F0DB
:1025A000B5FB3A2000F0A8FB052000F0AFFB2A2085
:1025B00000F0A2FB002000F0A9FB002000F0A6FB29
:1025C000002000F0A3FB7F2000F0A0FB2B2000F0F8
:1025D00093FB002000F09AFB002000F097FB002006
:1025E00000F094FB9F2000F091FB362000F084FB6C
:1025F000C82000F08BFBB72000F07EFB002000F02D
:1026000085FBF22000F078FB012000F07FFBE0204A
:1026100000F072FB3F2000F079FB252000F076FBF4
:10262000212000F073FB242000F070FB1D2000F03F
:102630006DFB0D2000F06AFB4C2000F067FBB8201A
:1026400000F064FB382000F061FB172000F05EFB17
:102650000F2000F05BFB082000F058FB042000F086
:1026600055FB022000F052FB002000F04FFBE12060
:1026700000F042FB002000F049FB1A2000F046FB6E
:102680001E2000F043FB0B2000F040FB122000F066
:102690003DFB122000F03AFB332000F037FB4720CF
:1026A00000F034FB472000F031FB082000F02EFB47
:1026B000202000F02BFB272000F028FB3C2000F01E
:1026C00025FB3D2000F022FB3F2000F01FFB2920CE
:1026D00000F012FB40F6B83000F05CFB80BD00005B
:1026E00070470000B0B501380024B4EB106F1CBF78
:1026F0000120B0BD4EF21005CEF2000568604FF02B
:10270000FF300F2100F024FB0720AC60286020463A
:10271000B0BD000080B5012000F0ECFBFEF76AFBC5
:1027200080BD000070B592B006AC20463021FDF7A8
:10273000B5FE002543F640000595CDE90355CDE9EA
:1027400001550095C4F202000168022641F0805153
:102750000160006800F080500090009847F200008F
:102760000095C4F20000016841F440410160006836
:1027700000F44040009000980120099010200A9039
:1027800008200E906020CDE90F060420119020460D
:102790000696CDE90C65FEF7AFFC78B90F20CDE9C0
:1027A00001064FF48050CDE9040501A803210395EB
:1027B000FEF7A6FB002804BF12B070BDFDF7B4FF02
:1027C0004EF68850CEF20000016841F470010160BD
:1027D000704700002DE9F04F83B0FDF745FF002062
:1027E00032211922002300F00FFB19200021322290
:1027F000002300F035FB46F61F52C0F600021E20F3
:102800004621FFF72BFB46F62B52C0F600022D2087
:102810005A21FFF723FBFFF7FDFA0DF10A0402AD81
:1028200040F6F97620462946FFF732F90128F9D11A
:10283000BDF80A00B042F5D8BDF80810B142F1D891
:1028400045F2182945F22028C2F20009C2F2000818
:10285000A9F80000A8F80010FDF706FF45F2800473
:10286000B9F90030B8F90070C2F2000446F60C5213
:10287000C0F60002204610210097FDF77DFD3220B2
:1028800046212246FFF7EAFA46F61752C0F6000242
:1028900032206421FFF7E2FAFFF7BCFA40F6B830C5
:1028A000FEF7BAF800F094FA0128FBD04FF6E77B68
:1028B000FDF7DAFE45F2A20AC2F2000A9AF8001009
:1028C0004FF6CE701922002300291CBF6E20A021D4
:1028D00000F09AFA9AF80000002100284FF6E770FD
:1028E0004FF032024FF0000318BF872000F0B8FA13
:1028F00046F61F52C0F600021E204621FFF7AEFA30
:1029000046F62B52C0F600022D205A21FFF7A6FAF8
:10291000FFF780FA0DF10A0502AE40F6F97700BF25
:1029200028463146FFF7B4F80128F9D1BDF80A006E
:10293000B842F5D8BDF80810B942F1D845F21A24CA
:1029400045F22225C2F20004C2F20005208029804F
:10295000FDF78AFEB5F9007045F28005B4F9003044
:10296000C2F2000546F60C52C0F6000228461021BD
:102970000097FDF701FD322046212A46FFF76EFA47
:1029800046F61752C0F6000232206421FFF766FABD
:10299000FFF740FA40F6B830FEF73EF800F018FABC
:1029A0000128FBD0FDF760FE45F2A407C2F2000744
:1029B00038784FF6E77200284FF000004FF03201F0
:1029C0004FF0000318BF672200F01EFA3A784FF666
:1029D000CE7119200023002A1CBF4E21802200F056
:1029E0003FFA46F61F52C0F600021E200A21FFF7EA
:1029F00035FA46F62B52C0F600022D201E21FFF7B5
:102A00002DFAFFF707FA0DF10A0502AE40F6F97448
:102A100028463146FFF73CF80128F9D1BDF80A00F5
:102A2000A042F5D8BDF80810A142F1D845F21C2407
:102A300045F22425C2F20004C2F20005208029805C
:102A4000FDF712FEB5F9006045F28005B4F90030DB
:102A5000C2F2000546F60C52C0F6000228461021CC
:102A60000096FDF789FC322046212A46FFF7F6F949
:102A700046F61752C0F6000232206421FFF7EEF945
:102A8000FFF7C8F940F6B830FDF7C6FF00F0A0F92F
:102A90000128FBD0FDF7E8FD38789AF800100028EF
:102AA0004FF6E7724FF6CE704FF0000318BF672263
:102AB0004FF6CE7500291CBF6E20A02100F0A4F9AE
:102AC0009AF800000023002818BF4FF0870B3978D0
:102AD000584600291CBF4E2580212A4600F0C0F927
:102AE00046F61F52C0F600021E200A21FFF7B6F973
:102AF00046F62B52C0F600022D201E21FFF7AEF93C
:102B0000FFF788F90DF10A0402AD40F6F97600BF2F
:102B100020462946FEF7BCFF0128F9D1BDF80A007E
:102B2000B042F5D8BDF80810B142F1D845F21E26E2
:102B300045F22625C2F20006C2F200053080298047
:102B4000FDF792FD45F28004B6F90030B5F900704A
:102B5000C2F2000446F60C52C0F6000220461021D4
:102B60000097FDF709FC322046212246FFF776F94F
:102B700046F61752C0F6000232206421FFF76EF9C4
:102B8000FFF748F940F6B830FDF746FF00F020F9AE
:102B90000128FBD0B6F90000B9F9001042F2950205
:102BA000401AC0F64F1250FB02F0B5F90030B8F9E8
:102BB0000070821002EBD070DA1B42F2D303CDF228
:102BC0000D2353FB022291FBF0F1931103EBD27220
:102BD00097FBF2F3C1F11901C3F1190300B212B26C
:102BE00009B21BB200F070F8FDF73EFD20A20520EF
:102BF0001E21FFF733F945F29800C2F20000B0F948
:102C0000003045F29C00C2F2000045F28004B0F9A9
:102C10000070C2F200041BA2204610210097FDF7AD
:102C2000ABFB052032212246FFF718F945F29A0046
:102C3000C2F20000B0F9003045F29E00C2F200007E
:102C4000B0F9007013A2204610210097FDF794FB05
:102C5000052046212246FFF701F9FFF7DBF845F290
:102C6000A000C2F200000121017003B0BDE8F08FA6
:102C700046696E6973682063616C69627261746928
:102C80006F6E000061783D25642C2062783D2564DC
:102C90000000000061793D25642C2062793D2564A7
:102CA0000000000045F2A000C2F200000021017007
:102CB00045F2A200C2F200000121017045F2A40019
:102CC000C2F200000170704745F2980CC2F2000C8D
:102CD000ACF8000045F29C00C2F20000018045F211
:102CE0009A00C2F20000028045F29E00C2F200008B
:102CF00003807047FEE7000010B504460820FFF788
:102D000049F9204600F06CF810BD000010B50446EB
:102D10000820FFF779F9204600F062F810BD0000A6
:102D2000002848BF704700F01F01012202FA01F19C
:102D30004EF200124009CEF2000242F82010704715
:102D40004EF60C50CEF200000068C0F3022070472F
:102D50004EF6145300F00F02CEF2000309011A449C
:102D600000F16043B0F1FF3FC8BF03F5644211704A
:102D7000704700004EF60C51CEF200010A684FF683
:102D8000FF031A4060F30A2242F0806040F0FD70B9
:102D90000860704710B540F20C04C2F200042168CC
:102DA000024608461146FFF7FFF92068FFF76EF963
:102DB0002068FFF703FA2068FFF778F92068FFF72B
:102DC000EFF90028FAD02068FFF76AF910BD00007B
:102DD00080B5FFF7CBF8B0FA80F0400980BD000065
:102DE00080B582B040F21001C2F200010A688DF88D
:102DF00007000DF107011046012241F6FF73FEF7AF
:102E000091FC02B080BD00002DE9F04105468142F1
:102E10000C463CBF04460D469F2C28BF9F249F2D87
:102E200088BF9F24AC4238BFBDE8F0819846164663
:102E3000AFB238463146424600F006F8BC4205F1D2
:102E40000105F5D8BDE8F08101EB810100EB4110EF
:102E500040F2800180B2C2F200010A5470470000C3
:102E60002DE9F0410D468A4214463CBF0C461546FA
:102E70007F2C4FF07F0128BF0C467F2D28BF0D46C9
:102E8000AC4238BFBDE8F08198460646AFB2304646
:102E900039464246FFF7D8FFBC4205F10105F5D897
:102EA000BDE8F08180B52020FFF774F81020FFF70F
:102EB00071F80520FDF7B0FD1020FFF7A5F80520FB
:102EC000FDF7AAFDFFF738FB00F00CF840F2000018
:102ED000C2F20000F82101604FF47840FEF778FF5D
:102EE00080BD000080B53620FFF706FF6020FFF7A9
:102EF0000DFF80BD45F21021C2F2000100220A70D0
:102F000045F20C21C2F200010A68104408607047C3
:102F100082B0FDF77DFFFFF705FCFFF777F9FFF7BC
:102F200059F9FFF7FDF9FFF71FFAFFF7D5F9FFF79A
:102F3000B3F900F07FF841F28830FFF72BFFFFF77D
:102F40001DF8FFF759F8FFF7ADFEFFF7ABFFFDF7F0
:102F50008BFB1FA202200221FEF780FFFEF75AFF23
:102F6000FFF74AF8FFF70AF8FFF734FC45F294043C
:102F700045F2960545F280064FF4FA77C2F2000456
:102F8000C2F20005C2F200060FF250083846FDF703
:102F900043FD20462946FEF77BFD01284FF005073B
:102FA000F4D1FDF761FB23882F883046102142467B
:102FB0000097FDF7E1F90220052132460527FEF7CB
:102FC0004DFFFEF727FF3220FDF726FDDEE700BFAD
:102FD00054657374204F4B2E2E2E0000583D2575DE
:102FE0002C20593D25750000F0B581B007462A20F8
:102FF0001C4616460D46FFF77FFE0020FFF786FEB3
:103000003846FFF783FE0020FFF780FE3046FFF7CB
:103010007DFE2B20FFF770FE0020FFF777FE28468D
:10302000FFF774FE0020FFF771FE2046FFF76EFEEB
:1030300001B0F0BDB0B586B000240594CDE90344DD
:10304000CDE90144FEF73EFF5F2040F20C05ADF8EC
:103050000400FF20C2F200050390286801A9029431
:103060000494FFF72FF82868FFF714F82868FFF793
:103070009FF806B0B0BDF1EE100A4FF6FF71C0F236
:10308000C03120EA010040F04070E1EE100A7047C4
:103090000000000000000000010203040607080908
:1030A000000000000102030403161745E0000000C1
:1030B0000000000000000000000000000000000010
:1030C0000000000000000000000000000000000000
:1030D00000000000000000000000000000000000F0
:1030E00000000000000000000000000000000000E0
:1030F0000000000000000000003000003000003040
:1031000000003000003000003000003000003000CF
:1031100000300000300000300000000000300000EF
:10312000300000000000000000000000000000006F
:1031300000000000000000000000000000006C0023
:10314000006C00006C0000000000000000000000A7
:10315000000000000000000000000000000000006F
:10316000000000000000000000000000000000005F
:10317000000000000000000000000000000000004F
:103180000000000CC000088000088000FFE000FF85
:10319000E000198000110000110000FFE000FFE0D6
:1031A0000022000022000022000066000000000053
:1031B000000000000000000000000000000000000F
:1031C00000000000000400000E00003F800064C00A
:1031D000006400006400003C00000F000007800055
:1031E00004C00004C00064C0002580003F80000EC1
:1031F00000000400000400000000000000000000C7
:10320000000000000000000000000000001808009E
:103210002408006610006630006620002460001854
:103220004000008C000192000133000333000233A0
:1032300000061200040C0000000000000000000066
:10324000000000000000000000000000000000007E
:1032500000000E00001F00003180003180001100CE
:10326000000F00000E000036000023300061A000B7
:1032700060E00030E0003FB0000E00000000000001
:10328000000000000000000000000000000000003E
:10329000000000000000006000006000006000000E
:1032A000000000000000000000000000000000001E
:1032B000000000000000000000000000000000000E
:1032C00000000000000000000000000000000000FE
:1032D00000000000000000000000000000000008E6
:1032E000000010000010000020000020000020005E
:1032F000006000006000006000006000002000002E
:103300002000003000001000001000000800000045
:1033100000000000000000000000000000000000AD
:10332000000000004000002000002000001000000D
:10333000100000100000180000180000180000180D
:1033400000001000001000003000002000002000ED
:10335000004000000000000000000000000000002D
:103360000000000000001000001000007C000010B1
:103370000000280000000000000000000000000025
:10338000000000000000000000000000000000003D
:10339000000000000000000000000000000000002D
:1033A000000000000000000000000000000000001D
:1033B00000000000060000060000060000060000F5
:1033C0007FE0007FE0000600000600000600000627
:1033D00000000000000000000000000000000000ED
:1033E00000000000000000000000000000000000DD
:1033F00000000000000000000000000000000000CD
:1034000000000000000000000000000000000000BC
:1034100000000000600000600000200000000000CC
:10342000000000000000000000000000000000009C
:10343000000000000000000000000000000000008C
:1034400000000000000000000000000000F8000084
:10345000F800000000000000000000000000000074
:10346000000000000000000000000000000000005C
:10347000000000000000000000000000000000004C
:10348000000000000000000000000000000000003C
:1034900000000000000000000000000000003000FC
:1034A00000300000000000000000000000000000EC
:1034B0000000000000000000000000000000000C00
:1034C00000000800000800001800001000001000B4
:1034D00000300000300000200000200000600000EC
:1034E000400000400000C00000000000000000009C
:1034F00000000000000000000000000000000000CC
:10350000000000000E00003F80003180002080009D
:1035100060C00060C00060C00060C00060C00060AB
:10352000C0002080003180003F80000E00000000BD
:10353000000000000000000000000000000000008B
:103540000000000000000000000200000600000E65
:10355000000016000026000006000006000006001D
:10356000000600000600000600000600000600003D
:103570000600000000000000000000000000000045
:1035800000000000000000000000000000000E002D
:10359000003F800021800060C00000C0000080006B
:1035A0000180000300000600000C0000180000303D
:1035B00000003FC0007FC0000000000000000000CD
:1035C00000000000000000000000000000000000FB
:1035D0000000000E00003F0000218000618000011B
:1035E000000006000003000000800000C00000C0D2
:1035F0000060C0002080003F80000E00000000003E
:1036000000000000000000000000000000000000BA
:10361000000000000000000001000003000007009F
:10362000000700000B0000130000330000630000DF
:10363000430000FFC000FFC00003000003000003C0
:10364000000000000000000000000000000000007A
:10365000000000000000000000000000003F8000AB
:103660003F80002000002000002000002600003FD6
:10367000800060800000C00000C00060C0002080AA
:10368000003F80000E00000000000000000000006D
:10369000000000000000000000000000000000002A
:1036A00000000E00001F800030800020C0002000BD
:1036B000006600007F800070800060C00060C00075
:1036C00020C0003080001F80000E000000000000BD
:1036D00000000000000000000000000000000000EA
:1036E000000000000000007FC0007FC000008000DC
:1036F0000100000300000200000600000400000CAE
:1037000000000C000008000008000018000018006D
:1037100000000000000000000000000000000000A9
:103720000000000000000000000000000E00003F4C
:10373000800020800060C00060C0002080001F006A
:10374000001F000020800060C00060C000208000DA
:103750003F80000E0000000000000000000000009C
:103760000000000000000000000000000000000059
:10377000000E00003F000020800060800060C0005C
:1037800060C00021C0003FC0000CC000008000608D
:1037900080002180003F00000E00000000000000BB
:1037A0000000000000000000000000000000000019
:1037B0000000000000000000000000000000000009
:1037C0000000300000300000000000000000000099
:1037D0000000000000000000000030000030000089
:1037E00000000000000000000000000000000000D9
:1037F00000000000000000000000000000000000C9
:103800000000000000000030000030000000000058
:103810000000000000000000000000000000003078
:103820000000300000100000000000000000000058
:103830000000000000000000000000000000000088
:1038400000000000000000000000000001C00007B0
:10385000000018000060000018000007000001C010
:103860000000000000000000000000000000000058
:103870000000000000000000000000000000000048
:103880000000000000000000000000000000000038
:10389000007FC0007FC0000000000000007FC0006B
:1038A0007FC00000000000000000000000000000D9
:1038B0000000000000000000000000000000000008
:1038C00000000000000000000000000000000000F8
:1038D0000000000000007000001C00000300000059
:1038E000C0000300001C0000700000000000000089
:1038F00000000000000000000000000000000000C8
:103900000000000000000000000000000000000EA9
:1039100000003F800031800060C00000C0000180D6
:10392000000300000600000400000C00000C000072
:103930000000000C00000C0000000000000000006F
:103940000000000000000000000000000000000077
:103950000000000000F80003FE000E03801801C004
:103960001066C031F440230C60220C60660860666B
:1039700008406608C062198023FF00318C001800DF
:10398000400E018007FF0000F8000000000000006A
:103990000000000000000000000700000700000514
:1039A00000000D800008800018C00018C000104002
:1039B000003FE0003FE00060300060300040100059
:1039C000C01800000000000000000000000000001F
:1039D00000000000000000000000000000003F8028
:1039E000003FC000306000306000306000304000B8
:1039F0003F80003FC0003060003030003030003089
:103A000020003FE0003F80000000000000000000B8
:103A100000000000000000000000000000000000A6
:103A20000000000380000FE000183000301000207C
:103A300000006000006000006000006000002018CE
:103A4000003010001820001FC00007000000000018
:103A50000000000000000000000000000000000066
:103A600000000000000000003F80003FE000303018
:103A700000303000301000301800301800301800CE
:103A80003018003010003030003030003FE0003F90
:103A900080000000000000000000000000000000A6
:103AA000000000000000000000000000003FF000E7
:103AB0003FF0003000003000003000003000003FD8
:103AC000E0003FE000300000300000300000300037
:103AD000003FF0003FF00000000000000000000088
:103AE00000000000000000000000000000000000D6
:103AF00000003FE0003FE0003000003000003000F8
:103B0000003000003FC0003FC00030000030000027
:103B100030000030000030000030000000000000E5
:103B20000000000000000000000000000000000095
:103B30000000000000000003C0000FF00018180093
:103B400030080020000060000060000060FC0060A1
:103B5000FC00200C00300C00181C000FF80003C003
:103B60000000000000000000000000000000000055
:103B70000000000000000000000000006030006055
:103B800030006030006030006030006030007FF056
:103B9000007FF00060300060300060300060300076
:103BA00060300060300000000000000000000000F5
:103BB0000000000000000000000000000000000005
:103BC0000030000030000030000030000030000005
:103BD00030000030000030000030000030000030C5
:103BE0000000300000300000300000000000000045
:103BF00000000000000000000000000000000000C5
:103C000000000000000003000003000003000003A8
:103C10000000030000030000030000030000030095
:103C2000000300006300006200003E00001C000072
:103C30000000000000000000000000000000000084
:103C4000000000000000000000000030600030C0F4
:103C50000031C0003180003300003600003E00001B
:103C60003F000033000031800030C0003060003081
:103C70007000303000000000000000000000000074
:103C80000000000000000000000000000000000034
:103C90003000003000003000003000003000003004
:103CA0000000300000300000300000300000300024
:103CB000003000003FC0003FC000000000000000D6
:103CC00000000000000000000000000000000000F4
:103CD0000000000000400400701C00783C00682CCC
:103CE00000682C006C6C006C6C00644C00644C0030
:103CF00066CC00628C00638C00638C00638C0000D7
:103D000000000000000000000000000000000000B3
:103D10000000000000000000000060300070300073
:103D20007030006830006C30006430006630006332
:103D3000300061300061B00060B000607000607001
:103D400000603000000000000000000000000000E3
:103D50000000000000000000000000000000000360
:103D600080000FE000183000301800200800600CC0
:103D700000600C00600C00600C002008003018008F
:103D80001830000FE0000380000000000000000079
:103D90000000000000000000000000000000000023
:103DA000000000003F80003FE00030600030300045
:103DB0003030003030003060003FE0003F800030A5
:103DC0000000300000300000300000300000000033
:103DD00000000000000000000000000000000000E3
:103DE0000000000000000000000380000FE0001849
:103DF0003000301800200800600C00600C00600CDF
:103E000000600C002008003098001870000FF000CF
:103E10000388000000000000000000000000000017
:103E200000000000000000000000000000003FC093
:103E3000003FE000303000303000303000303000E3
:103E40003FE0003FC00030800030C00030600030F4
:103E50006000303000301000000000000000000062
:103E60000000000000000000000000000000000052
:103E70000000000780001FE00010600030300030BC
:103E800000001800000F000000E00000200060307B
:103E9000002030003060001FE000078000000000BC
:103EA0000000000000000000000000000000000012
:103EB00000000000000000007FE0007FE00006003E
:103EC00000060000060000060000060000060000D4
:103ED00006000006000006000006000006000006BE
:103EE00000000000000000000000000000000000D2
:103EF0000000000000000000000000000060300032
:103F00006030006030006030006030006030006081
:103F100030006030006030006030002020003060F1
:103F2000003FC0000700000000000000000000008B
:103F30000000000000000000000000000000000081
:103F40000000C01800C018004010006030002020A1
:103F50000030600010600010400018C000088000B1
:103F60000D800005000007000007000000000000B1
:103F70000000000000000000000000000000000041
:103F800000000000000000C0E06040E04040A040B1
:103F900041B0406110C06110C023188023188022F6
:103FA0000880320980360D801405001C07001C07AC
:103FB0000000000000000000000000000000000001
:103FC0000000000000000000000000003060003031
:103FD000600018C0000D80000D8000070000020086
:103FE000000700000D800018C00018C000306000FD
:103FF00060300060300000000000000000000000A1
:1040000000000000000000000000000000000000B0
:104010000040200060600030C00030C00019800007
:104020000900000F00000600000600000600000660
:10403000000006000006000006000000000000006E
:104040000000000000000000000000000000000070
:104050000000000000007FE0007FC00000C0000101
:1040600080000100000200000600000C00000800B3
:10407000001000003000006000007FE000FFE00062
:104080000000000000000000000000000000000030
:104090000000000000000000000000780000780030
:1040A0000060000060000060000060000060000030
:1040B00060000060000060000060000060000060C0
:1040C00000006000006000006000007800007800E0
:1040D00000000000000000000000000000000000E0
:1040E000C0000040000040000060000020000020F0
:1040F0000000300000300000100000100000180028
:10410000000800000800000C000000000000000093
:10411000000000000000000000000000000000009F
:104120000000000000F00000F0000030000030004F
:10413000003000003000003000003000003000008F
:10414000300000300000300000300000300000304F
:104150000000300000F00000F0000000000000004F
:10416000000000000000000000001000001000002F
:10417000280000280000440000440000C6000000A1
:10418000000000000000000000000000000000002F
:10419000000000000000000000000000000000001F
:1041A000000000000000000000000000000000000F
:1041B00000000000000000000000000000000000FF
:1041C00000000000000000000000000000000000EF
:1041D000000000000000000000000000000000FFE0
:1041E000E000FFE000000000000000000000000010
:1041F000000000002000002000001000000000006F
:1042000000000000000000000000000000000000AE
:10421000000000000000000000000000000000009E
:10422000000000000000000000000000000000008E
:10423000000000000000000000000000000000007E
:1042400000000000000E00003F00006180000380BD
:10425000003F80003180006180006380003F80006B
:104260001C800000000000000000000000000000B2
:1042700000000000000000000000000000006000DE
:10428000006000006000006000006600006F8000B9
:1042900071800060C00060C00060C00060C000713C
:1042A00080006F8000660000000000000000000039
:1042B00000000000000000000000000000000000FE
:1042C0000000000000000000000000000000000EE0
:1042D00000003F00003180006000006000006000CE
:1042E000006000003180003F00000E000000000070
:1042F00000000000000000000000000000000000BE
:10430000000000000000000000C00000C00000C06D
:104310000000C0000CC0003EC00031C00060C00002
:1043200060C00060C00060C00031C0003EC0000C32
:10433000C0000000000000000000000000000000BD
:10434000000000000000000000000000000000006D
:104350000000000000000000000E00003F8000315F
:1043600080006080007FC0007FC00060000030805F
:10437000003F80000E000000000000000000000070
:10438000000000000000000000000000000000002D
:1043900000000C00001C00003000003000007C0019
:1043A000007C0000300000300000300000300000D1
:1043B000300000300000300000300000000000003D
:1043C00000000000000000000000000000000000ED
:1043D00000000000000000000000000000000000DD
:1043E0000000000EC0003FC00031C00060C000608F
:1043F000C00060C00060C00031C0003FC0000EC0FF
:104400000000C0006080003F80001E00000000002F
:1044100000000000000000000000000060000060DC
:1044200000006000006000006600006F0000718006
:104430000061800061800061800061800061800017
:1044400061800061800000000000000000000000AA
:10445000000000000000000000000000000000005C
:10446000006000006000000000000000006000002C
:1044700060000060000060000060000060000060FC
:10448000000060000060000060000000000000000C
:10449000000000000000000000000000000000001C
:1044A000000000000000600000600000000000004C
:1044B000000060000060000060000060000060001C
:1044C000006000006000006000006000006000000C
:1044D000600000600000C00000C00000000000009C
:1044E000000000000000000000000060000060000C
:1044F00000600000600000610000630000660000D2
:104500006C00007C00006C00006600006600006328
:10451000000061000000000000000000000000003A
:10452000000000000000000000000000000000008B
:10453000600000600000600000600000600000603B
:10454000000060000060000060000060000060008B
:10455000006000006000006000000000000000003B
:10456000000000000000000000000000000000004B
:10457000000000000000000000000000000000003B
:10458000006618006F7C0071C600618600618600BD
:104590006186006186006186006186006186000098
:1045A000000000000000000000000000000000000B
:1045B00000000000000000000000000000000000FB
:1045C0000000000000006600007F000071800061B4
:1045D00080006180006180006180006180006180F6
:1045E00000618000000000000000000000000000EA
:1045F00000000000000000000000000000000000BB
:1046000000000000000000000000000E00003F80DD
:104610000031800060C00060C00060C00060C00069
:104620003180003F80000E0000000000000000000C
:10463000000000000000000000000000000000007A
:10464000000000000000000000000000000000006A
:104650006600006F800071800060C00060C0006074
:10466000C00060C0007180007F80006600006000B4
:10467000006000006000006000000000000000001A
:10468000000000000000000000000000000000002A
:1046900000000000000CC0003EC00031C00060C03F
:1046A0000060C00060C00060C00031C0003FC000BA
:1046B0000CC00000C00000C00000C00000C000002E
:1046C00000000000000000000000000000000000EA
:1046D000000000000000000000006C0000780000F6
:1046E000600000600000600000600000600000608A
:1046F00000006000006000000000000000000000FA
:1047000000000000000000000000000000000000A9
:104710000000000000000000000000000000001E7B
:1047200000003F00006180006000003C00000700C6
:10473000000180006180003F00001E0000000000BA
:104740000000000000000000000000000000000069
:1047500000000000000000000000002000006000D9
:1047600000600000F80000F8000060000060000039
:104770006000006000006000006000007800003809
:104780000000000000000000000000000000000029
:104790000000000000000000000000000000000019
:1047A00000000000000000000061800061800061E6
:1047B0008000618000618000618000618000638012
:1047C000003D800019800000000000000000000093
:1047D00000000000000000000000000000000000D9
:1047E0000000000000000000000000000000C18088
:1047F0000041000041000063000022000022000090
:104800001400001C00001C00000800000000000054
:104810000000000000000000000000000000000098
:104820000000000000000000000000000000000088
:10483000000000C21800C21800C710004510006533
:10484000100068A00028A00038E00038E000104008
:104850000000000000000000000000000000000058
:104860000000000000000000000000000000000048
:104870000000000000000000410000630000220072
:10488000001400001C00001C00001C00002200009E
:104890006300004100000000000000000000000074
:1048A0000000000000000000000000000000000008
:1048B00000000000000000000000000000C18000B7
:1048C00041000061000023000022000012000016D9
:1048D00000000E00000C00000C00000C000018008E
:1048E00000780000600000000000000000000000F0
:1048F00000000000000000000000000000000000B8
:1049000000007F80007F80000380000600000C0014
:1049100000380000700000E00000FF8000FF800011
:104920000000000000000000000000000000000087
:1049300000000000000000000000000C00001C004F
:104940000030000030000030000030000030000077
:10495000200000C00000C000002000003000003037
:1049600000003000003000003000001C00000C008F
:104970000000000000000000000000000000000037
:104980003000003000003000003000003000003007
:104990000000300000300000300000300000300027
:1049A0000030000030000030000030000030000017
:1049B0003000003000000000000000000000000097
:1049C0000000000000C00000E000003000003000E7
:1049D000003000003000003000001000000C00002B
:1049E0000C000010000030000030000030000030EB
:1049F0000000300000E00000C000000000000000E7
:104A000000000000000000000000000000000000A6
:104A10000000000000000000000000001000003C4A
:104A2000400047800001000000000000000000007E
:104A30000000000000000000000000000000000076
:104A40000000000000000000000000000000000066
:104A50000000000000000000000000000000000056
:104A60000000000000000000000000000000000046
:104A70000000000000000000000000000000000036
:104A80000000000000000000000000000000000026
:104A9000000000007FE0007FE0000600000600004C
:104AA00006000006700007FC00060C000606000663
:104AB0000600060600060C00067C0006300000001A
:104AC00000000000000000000000000000010000E5
:104AD0000100000200000000003FC0003FC00030A5
:104AE00000003000003000003000003000003000D6
:104AF00000300000300000300000300000300000C6
:104B00003000000000000000000000000000000075
:104B10000000000000000000000000000000000095
:104B20000000000000000000000000000000000085
:104B30000000000000000000000000000000000075
:104B40000000600000600000200000000000000085
:104B50000000000000000000000000000000000055
:104B60000000000800000800001000000000007EA7
:104B700000007E0000600000600000600000600037
:104B800000600000600000600000600000000000A5
:104B90000000000000000000000000000000000015
:104BA0000000000000000000000000000000000005
:104BB00000000000000000000000000000000000F5
:104BC0000000000000000000000000006C00006C0D
:104BD00000002400000000000000000000000000B1
:104BE00000000000000000000000000000000000C5
:104BF00000000000000000000000000000000000B5
:104C000000000000000000000000000000000000A4
:104C10000030C30030C300000000000000000000AE
:104C20000000000000000000000000000000000084
:104C300000000600000600000600000600007FE0FD
:104C4000007FE000060000060000060000060000ED
:104C50000600000600000600000600000600000630
:104C6000000006000000000000000000000000003E
:104C70000000000000000006000006000006000022
:104C80000600007FE0007FE000060000060000064E
:104C900000000600000600007FE0007FE000060044
:104CA00000060000060000060000000000000000F2
:104CB0000000000000000000000000000380000F62
:104CC000C000180000300000200000200000FF801D
:104CD00000600000FF80002000003000001800008D
:104CE0001FC0000380000000000000000000000062
:104CF00000000000000000000000000000000000B4
:104D000000210000530000DB0000DA0000DE00009C
:104D10005E00002400000482000D45000F6D800B32
:104D20006D801B6D8019450010C30000000000005D
:104D30000000000000000000000000000000000073
:104D40000000000000003FE0003FE0003060003065
:104D50006000306000306000307F00307FC0306025
:104D600040306060306060306040E07FC0407F0075
:104D70000000000000000000000000000000000033
:104D80000000000000000000000000000000000023
:104D900000000000000000080000180000100000E3
:104DA0002000006000002000001000001800000833
:104DB00000000000000000000000000000000000F3
:104DC00000000000000000000000000000000000E3
:104DD00030C00030C00030C00030C00030C00030F3
:104DE000C0003FFE003FFF8030C0C030C0C030C0B8
:104DF000C030C08030FF8030FE00000000000000A6
:104E0000000000000000000000020000020000049A
:104E1000000000000030600030E000318000310010
:104E2000003300003200003C00003200003300007C
:104E30003100003080003080003040003040000001
:104E40000000000000000000000000000000000062
:104E500000000000000000000000FFC000FFC000D4
:104E60000C00000C00000C00000CE0000FF8000C1F
:104E700018000C0C000C0C000C0C000C0C000C0CA2
:104E8000000C0C000000000000000000000000000A
:104E900000000000000000000000000000000030E2
:104EA00030003030003030003030003030003030F2
:104EB0000030300030300030300030300030300012
:104EC0003030003FF0003FF000030000030000031B
:104ED00000000300000000000000000000000000CF
:104EE00000000000600000FC0000FC00006000000A
:104EF0006600007F000071800061800061800061B9
:104F0000800061800061800061800061800001801C
:104F1000000180000180000300000000000000008C
:104F20000000000000000000000000000000004041
:104F300000006000006000000000000000000000B1
:104F40000000000000000000000000000000000061
:104F50000000000000000000000000000000000051
:104F600000000000000000000000000000006000E1
:104F700000600000200000000000000000000000B1
:104F80000000000000000000000000000000000021
:104F90000000000000000000000000000000000011
:104FA0000000000000000000000000000000000001
:104FB0000000000000000000004800006C00006CD1
:104FC00000000000000000000000000000000000E1
:104FD00000000000000000000000000000000000D1
:104FE00000000000000000000000000000000000C1
:104FF00000000000000000006C00006C00002400B5
:1050000000000000000000000000000000000000A0
:105010000000000000000000000000000000000090
:105020000000000000000000000000000000000080
:105030000000000000000000000000000000000070
:105040000000000000000000000000001000003818
:1050500000007C000038000010000000000000008C
:105060000000000000000000000000000000000040
:105070000000000000000000000000000000000030
:105080000000000000000000000000000000000020
:1050900000000000000000000000FFE000FFE00052
:1050A0000000000000000000000000000000000000
:1050B00000000000000000000000000000000000F0
:1050C00000000000000000000000000000000000E0
:1050D000000000000000000000000000000000FFD1
:1050E000FFE0FFFFE0000000000000000000000003
:1050F00000000000000000000000000000000000B0
:10510000000000000000000000000000000000009F
:10511000000000000000000000000000000000008F
:10512000000000000000000000000000000000007F
:10513000000000000000000000000000000000006F
:10514000000000000000000000000000000000005F
:10515000003EC60008C60008820008820008AA00B7
:105160000882000892000892000000000000000081
:10517000000000000000000000000000000000002F
:10518000000000000000000000000000000000001F
:10519000000000000000000000000000000000000F
:1051A00000003FC0003FC00030C00030FC0030FEB7
:1051B0000030C30030C30030C300F0FE00E0FC004C
:1051C00000000000000000000000000000000000DF
:1051D00000000000000000000000000000000000CF
:1051E00000000000000000400000600000200000FF
:1051F00010000018000010000020000060000040B7
:10520000000000000000000000000000000000009E
:10521000000000000000000000000000000000008E
:1052200000000000000000000000000063000063B8
:1052300000006300006300007FF0007FF800630C53
:1052400000630C0063F80063F00000000000000041
:10525000000000000000000000000000000000004E
:10526000000000000008000008000010000000001E
:105270000063000063000064000064000078000028
:10528000680000640000640000620000620000002A
:10529000000000000000000000000000000000000E
:1052A00000000000000000000000600000FC0000A2
:1052B000FC00006000006600007F0000718000615B
:1052C00080006180006180006180006180006180F9
:1052D00000618000000000000000000000000000ED
:1052E00000000000000000000000000000000000BE
:1052F00000000000000000000000006180006180EC
:105300000061800061800061800061800061800038
:105310006180007F80007F80000C00000C00000C8A
:1053200000000C0000000000000000000000000071
:10533000000000000000000000000000000000006D
:10534000000000000000000000000000000000005D
:10535000000000000000000000000000000000004D
:1053600000000000000000000000000000088000B5
:10537000000000020000000000401000202000306B
:1053800020001040001840000880000C800005003C
:10539000000700000200000200000400003C0000C2
:1053A00038000000000000000000000000000000C5
:1053B00000000000000000000000000000002200CB
:1053C00000000000080000000000C1800041000053
:1053D0006100002300002200001200001600000EF1
:1053E00000000C00000C00000C0000180000780009
:1053F000006000000000000000000000000000004D
:10540000000000030000030000030000030000038D
:10541000000003000003000003000003000003007D
:10542000006300006200003E00001C00000000005D
:10543000000000000000000000000000000000006C
:10544000000000000000000000000000000000005C
:10545000000000004C80003F00002100006180003F
:105460006180002100003F00004C8000000000002F
:10547000000000000000000000000000000000002C
:10548000000000000300000300000300003F0000D4
:105490003F000030000030000030000030000030DD
:1054A000000030000030000030000030000030000C
:1054B000003000003000000000000000000000008C
:1054C00000000000000000000000000000000000DC
:1054D00000003000003000003000003000003000DC
:1054E000003000003000003000000000000000002C
:1054F00000000030000030000030000030000030BC
:10550000000030000030000000000000000000003B
:10551000000000000000000E00001F0000318000AD
:10552000100000180000140000230000618000201B
:10553000C00030C000088000070000030000010028
:10554000006180002180003F00000E00000000008C
:105550000000001980001980000000003FF0003FAB
:10556000F0003000003000003000003000003FE06C
:10557000003FE0003000003000003000003000004C
:105580003FF0003FF00000000000000000000000BD
:10559000000000000000000000000000000000000B
:1055A00000078000102000201000470800080000BD
:1055B0001000009004009004001044000880004790
:1055C00008002010001020000780000000000000EC
:1055D00000000000000000000000000000000000CB
:1055E0000000000000000380000FE00018300030D1
:1055F00018002000006000007F00007F00006000B5
:10560000002000003018003830001FE00007800044
:10561000000000000000000000000000000000008A
:10562000000000000000000000000000000000007A
:105630000000000000000008800019800011000038
:1056400022000066000022000011000019800008FE
:1056500080000000000000000000000000000000CA
:10566000000000000000000000000000000000003A
:105670000000000000000000000000007FC0007F6C
:10568000C00000C00000C00000C00000C00000005A
:10569000000000000000000000000000000000000A
:1056A00000000000000000000000000000000000FA
:1056B00000000000000000000000000000000000EA
:1056C00000000000000000000000000000F80000E2
:1056D000F8000000000000000000000000000000D2
:1056E00000000000000000000000000000000000BA
:1056F00000000000000000000000078000102000F3
:105700002010004F08000880000880008F040089E6
:1057100004000804000800004808002010001020C1
:1057200000078000000000000000000000000000F2
:10573000000000000000CC0000CC000000000030A1
:105740000000300000300000300000300000300069
:105750000030000030000030000030000030000059
:1057600030000030000030000000000000000000A9
:105770000000000000000000000000000000000029
:1057800000000000100000000000440000000000C5
:1057900010000000000000000000000000000000F9
:1057A00000000000000000000000000000000000F9
:1057B00000000000000000000000000000000000E9
:1057C00000000000000000000000000000000000D9
:1057D00000000C00000C00000C00000C0000FFC0DA
:1057E00000FFC0000C00000C00000C0000FFC00017
:1057F000FFC00000000000000000000000000000EA
:105800000000000000000000000000000000300068
:105810000030000030000030000030000030000098
:105820003000003000003000003000003000003058
:105830000000300000300000000000000000000008
:105840000000000000000000000000000000000058
:105850000000006000006000000000000000006028
:105860000000600000600000600000600000600058
:1058700000600000600000600000600000000000A8
:105880000000000000000000000000000000000018
:1058900000000000000000000600000600000600F6
:1058A000000600007E00007E000060000060000036
:1058B00060000060000060000060000060000060A8
:1058C00000000000000000000000000000000000D8
:1058D00000000000000000000000000000000000C8
:1058E00000000000000000000060C00060C0006018
:1058F000C00060C00060C00060C00060C00071C037
:10590000007FC0006CC0006000006000006000000C
:105910006000000000000000000000000000000027
:1059200000001FC0007FC000798000F98000F9806E
:1059300000F980007980003980001980001980000A
:105940001980001980001980001980001980001941
:10595000800019800000000000000000000000002E
:105960000000000000000000000000000000000037
:1059700000000000000000000030000030000000C7
:105980000000000000000000000000000000000017
:105990000000000000000000000000000000000007
:1059A00000000000000000000000000000000019DE
:1059B00080001980000000000E00003F8000318050
:1059C000006080007FC0007FC00060000030800069
:1059D0003F80000E000000000000000000000000FA
:1059E00000000000000000000000000000000000B7
:1059F000003860003860003860003C63003467C0E5
:105A0000366460326C603264603367C03163803109
:105A1000E00030EFE030EFE030E000000000000098
:105A20000000000000000000000000000000000076
:105A30000000000000000000000000000000000066
:105A400000000E00003F00002180006000007C008C
:105A5000007C00006000002180003F00001E00006C
:105A60000000000000000000000000000000000036
:105A70000000000000000000000000000000000026
:105A800000000000000000220000330000110000B0
:105A90000880000CC00008800011000033000022C4
:105AA00000000000000000000000000000000000F6
:105AB00000000000000000000000000000000000E6
:105AC0006000006000000000000000006000006056
:105AD00000006000006000006000006000006000E6
